:020000040800F2
:10000000180400209D010008ED010008E901000826
:10001000EB010008E50100080D05000800000000E4
:100020000000000000000000000000007102000855
:10003000E70100080000000055020008B5010008B3
:10004000B7010008B7010008B7010008B7010008B0
:10005000B7010008B7010008B7010008B7010008A0
:10006000B7010008B7010008B7010008B701000890
:10007000B7010008B7010008B7010008B701000880
:10008000B7010008B7010008B7010008B701000870
:10009000B7010008B7010008B7010008B701000860
:1000A000B7010008B7010008B7010008B701000850
:1000B000B7010008C1030008B7010008B701000834
:1000C000B7010008B7010008B7010008B701000830
:1000D000B7010008B7010008B7010008B701000820
:1000E000B7010008B7010008B7010008B701000810
:1000F000B7010008B7010008B7010008B701000800
:10010000B7010008B7010008B7010008B7010008EF
:10011000B7010008B7010008B7010008B7010008DF
:10012000B7010008B7010008B7010008B7010008CF
:10013000B7010008B7010008B7010008B7010008BF
:10014000B7010008B7010008B7010008B7010008AF
:10015000B7010008B7010008B7010008B70100089F
:10016000B7010008B7010008B7010008B70100088F
:10017000B7010008B7010008B7010008B70100087F
:10018000B7010008B7010008DFF80CD000F018F83C
:10019000004800472D050008180400200648804745
:1001A00006480047FEE7FEE7FEE7FEE7FEE7FEE75C
:1001B000FEE7FEE7FEE7FEE76503000889010008A9
:1001C000064C074D06E0E06840F0010394E80700A4
:1001D00098471034AC42F6D3FFF7DAFF6C050008FD
:1001E0008C050008FEE77047FEE7FEE77047000059
:1001F00070B50F21C478027801234FF0E026E4B1F6
:10020000124C246804F4E064C4F5E064C4F30724E9
:10021000C4F10405E1404478AC4085780D402543A5
:100220000B4C29011155007800F01F018B4040094B
:1002300006EB8000C0F8003170BD02F01F00834063
:10024000500906EB8000C0F8803170BD0CED00E075
:1002500000E400E070470000044A0029116801D062
:10026000014300E0814311607047000040380240C4
:10027000704700001948016841F08051016018483A
:10028000016841F480410160144838380168016018
:10029000016841F400410160016841F4A05101602E
:1002A000021F10491160111F0A6842F080720A6033
:1002B0000A689201FCD50C4A40F2056111600168A0
:1002C00021F003010160016841F002010160016851
:1002D000C1F381010229FAD1704700004038024081
:1002E0000070004010540007003C024070B51A4CEA
:1002F00020681A4A10F00C01194804D0551004293E
:1003000003D0082903D002601BE0056019E0124900
:10031000091F0B68C3F380560B6803F03F0316B147
:10032000B5FBF3F201E0B2FBF3F20B680968C3F32B
:1003300088135A43C1F30141491C4900B2FBF1F152
:1003400001602168064AC1F30311121D515C026865
:10035000CA40026070BD0000083802400024F4006A
:1003600000000020124810B5016841F470010160DE
:100370001048016841F0010101600E4A0021083275
:10038000116002680C4B1A400260031D0B4A1A6090
:10039000026822F48022026006480C300160FFF7F8
:1003A00069FF03494FF000608039086010BD00000C
:1003B00088ED00E000380240FFFFF6FE1030002418
:1003C000094810B50168094C491C0160012120460B
:1003D00000F049F808B1032100E002212046BDE801
:1003E000104000F033B8000014000020000400406A
:1003F0001FB501210220FFF72FFF1D208DF80C00F3
:1004000000248DF80D4001208DF80E008DF80F00AE
:1004100003A8FFF7EDFE632001905320ADF8000024
:10042000ADF80840ADF80240074C6946204600F0A0
:100430002FF801221146204600F021F80121204624
:1004400000F007F81FBD000000040040C94301820E
:1004500070470029018802D041F0010101E021F03C
:1004600001010180704702460020138A92890B42E5
:1004700002EA010202D0002A00D001207047002ABF
:10048000828901D00A4300E08A43828170470000DC
:1004900030B50288164B174C98420DD0A0420BD0B5
:1004A000B0F1804F08D0144DA84205D0134DA8429A
:1004B00002D0134DA84203D122F070054A882A4386
:1004C000104DA84206D0104DA84203D022F440752A
:1004D0000A892A4302804A68C2620A8802859842D1
:1004E00001D0A04201D1897A01860121818230BDEB
:1004F00000000140000401400004004000080040EA
:10050000000C00400010004000140040FEE702E034
:1005100008C8121F08C1002AFAD17047704700208E
:1005200001E001C1121F002AFBD17047FFF7DEFE78
:100530000C484FF47A710068B0FBF1F0B0F1807FA5
:100540000FD220F07F414FF0E020491E4161064A62
:10055000F02111700021816107210161FFF748FF3F
:10056000FEE7FEE70000002023ED00E08C05000818
:1005700000000020180000000E050008A405000877
:1005800018000020000400001E050008007A030A7D
:100590000000000000000000010203040607080933
:0405A0000000000057
:040000050800018965
:00000001FF
