:020000040800F2
:10000000480400209D010008270E0008E70B0008A7
:10001000250E0008CD070008D711000800000000D9
:10002000000000000000000000000000B50E000805
:10003000710A000800000000290E0008AD0F00083A
:10004000B7010008B7010008B7010008B7010008B0
:10005000B7010008B7010008890A0008B7010008C5
:10006000B7010008B7010008B7010008B701000890
:10007000B7010008B7010008B7010008B701000880
:10008000B7010008B7010008B7010008B701000870
:10009000B7010008B7010008B7010008B701000860
:1000A000B7010008B7010008B7010008B701000850
:1000B000B701000891100008B7010008B701000857
:1000C000B7010008B7010008B7010008B701000830
:1000D000B7010008B7010008B7010008B701000820
:1000E000B7010008B7010008B7010008B701000810
:1000F000B7010008B7010008B7010008B701000800
:10010000B7010008B7010008B7010008B7010008EF
:10011000B7010008B7010008B7010008B7010008DF
:10012000B7010008B7010008B7010008B7010008CF
:10013000B7010008B7010008B7010008B7010008BF
:10014000B7010008B7010008B7010008B7010008AF
:10015000B7010008B7010008B7010008B70100089F
:10016000B7010008B7010008B7010008B70100088F
:10017000B7010008B7010008B7010008B70100087F
:10018000B7010008B7010008DFF80CD000F09EFAB4
:1001900000480047FD1F000848040020064880472B
:1001A00006480047FEE7FEE7FEE7FEE7FEE7FEE75C
:1001B000FEE7FEE7FEE7FEE73510000889010008CC
:1001C00040EA01039B0703D009E008C9121F08C0D9
:1001D000042AFAD203E011F8013B00F8013B521E59
:1001E000F9D270472DE9FE4F804681EA0300C00F27
:1001F0000C46009021F0004123F00045B8EB0200CE
:10020000A94105D24046214690461C460B4602466F
:1002100023F00040104304D14046214603B0BDE81E
:10022000F08F270DC7F30A00C3F30A510290401A5A
:100230000190402866DAC3F3130040F4801B009855
:10024000924620B10023D2EB030A63EB0B0B01981B
:100250005946C0F14002504600F06BF906460D4683
:1002600050465946019A00F083F910EB08006141AD
:10027000002487EA115284EAE7731A433BD0009ABC
:100280003AB3019A012A4FEA075210DC001B61EBD6
:1002900002014FF0004202EA0752CDE90042001C81
:1002A00041F5801132462B4600F081F9B6E7001B7C
:1002B00061EB0201001C41F5801300185B4120181E
:1002C000A2F5001747EB030140EAD570B6196D415E
:1002D00011E06D084FEA360645EAC0754FEA07524D
:1002E000001B61EB0201001C41F5801149084FEA37
:1002F00030000019514132462B4603B0BDE8F04FA3
:1003000000F048B90098012240000023D0EB02021F
:1003100063EBE073009821464FEAE074B8EB00000D
:1003200061EB0401E9E783F000435BE781F0004102
:1003300058E72DE9FE4F81EA030404F0004421F060
:10034000004100944FF0000B23F0004350EA0104F9
:1003500002D052EA030404D10020014603B0BDE8F4
:10036000F08FC3F30A54C1F30A552C44A4F2F334BA
:100370000194A0FB0254C1F3130141F48011C3F3B3
:10038000130343F4801301FB024400FB034E840A71
:10039000970A44EA815447EA8357A4FB0768029509
:1003A0008D0A05FB07854FEA932C04FB0C542705A7
:1003B000029D4FEA065847EA1637B5EB08056EEB83
:1003C000070C870E920E47EA811742EA8312A7FBB9
:1003D0000201B6EB0B0164EB00042B0D43EA0C3376
:1003E0005E1844EB1C50DA465146E7FB0201C5F3A8
:1003F00013044FEA0B3343EA14534FEA0432019CCF
:1004000043EA0603A4F10C040294009CCDE900B475
:1004100000F0CDF8A2E72DE9F04D81EA030404F0E5
:10042000004B21F0004514464FF0000A23F0004134
:1004300050EA050220D054EA01021DD0C5F30A5744
:100440000246C5F31303C1F31300C1F30A5640F487
:10045000801543F48013A7EB0608101BD64608F25C
:10046000FD3873EB050002D308F1010801E0921892
:100470005B41B8F1000F03DA00200146BDE8F08DC2
:1004800000204FF48011064684460EE0171B73EBE4
:10049000050705D3121B63EB050306434CEA010C69
:1004A00049084FEA300092185B4150EA0107EDD14C
:1004B00052EA030012D082EA040083EA05010843ED
:1004C00003D100224FF0004308E0101BAB4102D2E1
:1004D0000122002302E06FF0010253101AEB060024
:1004E0004CEB085110EB0A0041EB0B01BDE8F04D5D
:1004F00000F050B870B5C1F30A5201F00045002475
:10050000C1F3130140F2FF3341F480119A4201DA42
:10051000002070BD40F233439A42A2F2334203DC22
:10052000524200F015F800E090402C43F1D04042D8
:1005300070BD202A04DB203A00FA02F10020704747
:100540009140C2F1200320FA03F319439040704711
:10055000202A04DB203A21FA02F00021704721FA18
:1005600002F3D040C2F1200291400843194670477F
:10057000202A06DBCB17203A41FA02F043EAE07367
:1005800006E041FA02F3D040C2F120029140084354
:100590001946704710B5002B08DA401C41F10001E4
:1005A00092185B411A4301D120F0010010BD2DE9E2
:1005B000F04D92469B4611B1B1FA81F202E0B0FAD9
:1005C00080F220329046FFF7B4FF04460F4640EA1F
:1005D0000A0041EA0B0153465A46084303D120461C
:1005E0003946BDE8F08D114653EA010015D0C8F137
:1005F00040025046FFF7ACFF05460E4650465946AE
:100600004246FFF796FF084301D0012000E000209A
:10061000054346EAE0762C4337430A984FEA4453B1
:10062000A0EB08004FEAD4240A304FF0000244EA5D
:1006300047544FEAD72502D500200146D1E70105EE
:1006400010196941DDE9084500196941BDE8F04D1F
:10065000A0E770B521F0004303430CD0C1F30A5565
:100660000024D5EB040564EB0403D617AD1AB3419F
:1006700002DB0020014670BD201841EB025170BD25
:100680000EB5C10F80EAE0700844CA07002140F2AD
:1006900033438DE80E000A460B46FFF788FF03B090
:1006A00000BD000030B5002904DB4FF0004440429B
:1006B00064EB0101002B04DB4FF00044524264EB79
:1006C0000303994208BF904230BD0000064C074D1D
:1006D00006E0E06840F0010394E807009847103412
:1006E000AC42F6D3FFF754FDE823000808240008C5
:1006F0002DE9F04D00231A461B1A8A4103DB002026
:100700000146BDE8F08DC1F30A52C1F3130141F473
:1007100080154FF0000BD10702D100186D41521E19
:100720000027044640F2FF11384601EB620A3E46BC
:100730008046024600204FF48011FFF709FFC219DE
:100740007141BB1846EB0100B4EB030C75EB000CD8
:1007500004D3E41A65EB000517460E46241908F188
:1007600001006D4180463428E3DDF91946EB0600AF
:10077000091BA84103D24FF0FF32134601E00022CB
:1007800013461BEB070046EB0A51BDE8F04DFFF79F
:1007900001BF00000B48016841F0010101600A48F7
:1007A000016821F003010160816821F0030181608B
:1007B000816841F002018160C16821F00301C160DC
:1007C000704700003038024000000240FEE70000A1
:1007D0000C4810B504210160402141604FF43061A4
:1007E00081600021C1600146002000F041F8012134
:1007F000002000F025F8BDE8104047F6F071042015
:1008000000F04AB8340000200C4810B50421016003
:10081000802141604FF4A06181600021C1600146E8
:10082000102000F025F80121102000F009F8BDE8A3
:1008300010404FF48071002000F038B834000020E0
:10084000044A01238340106809B1184300E098432B
:10085000106070470074004010B501214C0720461D
:1008600000F01CFB2046BDE81040002100F016BB44
:1008700030B5084C236840F6FE7282409343D1E9BC
:1008800000252A43D1E902510D432A4382401A43ED
:10089000226030BD00740040034A08B5104408309F
:1008A0000090016008BD000000740040034A08B5D4
:1008B000104414300090016008BD00000074004036
:1008C0001CB501210B4800F0D1FA0121480700F0C6
:1008D000D9FA3020009003208DF8040000208DF814
:1008E00007006946044800F02DF900F0E9FBFFF726
:1008F000B3FF1CBD010020000000024030B5A9B0CC
:100900000024A02211496846FFF75AFC00F08EFA35
:10091000012000F0AFF800F099FA012000F0AAF8E9
:100920004FEA0D0500F09CF855F8240000F090F80F
:10093000012000F09FF800F079FA641C282CF1DB0C
:1009400000F084FA00F08CF829B030BD982200083D
:100950001148016841F0100101601048016821F45C
:100960007C610160016841F4A8610160416821F087
:1009700038014160816821F47C618160816841F4C3
:1009800028618160C16821F47C61C160C16841F463
:10099000A861C1607047000030380240001002407A
:1009A00030B500242DED028BB0EE408AF0EE608A67
:1009B000A9B09FED211B9FED220B00F025FC53EC0D
:1009C000182B51EC100BFFF7B4FC9FED1F1B53ECE1
:1009D000112BFFF720FDFFF78DFD01224FEA0D05DA
:1009E00002FA04F1014000D0012145F82410641CF2
:1009F000282CF5DB00F01AFA012000F03BF800F09B
:100A000025FA012000F036F85FF0000400F028F825
:100A100055F8240000F01CF8012000F02BF800F03D
:100A200005FA641C282CF1DB00F010FA00F018F82D
:100A300029B0BDEC028B30BD00000000000040403A
:100A400000000000000000400000000065CD9D4156
:100A500002494A6942EAC0004861704700100240FA
:100A60000248416921F008014161704700100240CD
:100A700070470000034A516853685B1A8342FBD3F6
:100A8000704700001800002010B500F0ADF80021FC
:100A9000084600F0CDF81349086830B1012808D0A5
:100AA00002280AD003280ED016E0012008600EA00C
:100AB00006E00220086010A002E00320086013A0F6
:100AC00000F080F908E00020086015A000F07AF935
:100AD0009FED170BFFF764FFBDE81040012000F009
:100AE0002BB80000180000204672657175656E63B2
:100AF00079204D65746572004E6F69736520476596
:100B00006E65726174696F6E000000004172626907
:100B1000746F72792046756E6374696F6E000000A1
:100B2000576176652047656E65726174696F6E0006
:100B30000000000000408F4001490860704700003D
:100B4000143C0140F0B50023012403270D6804FA8A
:100B500003F21540954242D1D0F800C05E0007FA7A
:100B600006F52CEA050CC0F800C091F804C0D0F8D6
:100B700000E00CFA06FC4CEA0E0CC0F800C091F83C
:100B800004C0BCF1010F02D0BCF1020F1FD1D0F89C
:100B900008C02CEA050CC0F808C091F805C0D0F8D0
:100BA00008E00CFA06FC4CEA0E0CC0F808C0D0F8BD
:100BB00004C02CEA020CC0F804C0426891F806C0D8
:100BC0000CFA03FC1FFA8CFC42EA0C024260C26879
:100BD000AA43C260CA79C568B2402A43C2605B1C9E
:100BE000102BB3D3F0BDFEE7054910B501200880F6
:100BF00000F0FCF8BDE810400A20FFF73BBF000002
:100C00001A04024010B50548042404800120FFF7AF
:100C100031FF0248801C048010BD0000180402400F
:100C200002494FF400400883704700000000024072
:100C30000B4B10B501221A8011B1012905D009E032
:100C400000F03F0040F0800002E0C0B240F0C00081
:100C500000F0CCF8BDE810400120FFF70BBF00000A
:100C60001A04024010B51420FFF704FF13480421B2
:100C7000018001210180022101801420FFF7FAFE8A
:100C80000F4920200880FFF7BDFF0120FFF7F2FE8B
:100C9000FFF7B8FF0120FFF7EDFEFFF7B3FF1420C9
:100CA000FFF7E8FE282000F0A1F80C2000F09EF8E5
:100CB000BDE81040062000F099B800001A04024078
:100CC000180C0240354810B5016841F00801016078
:100CD00033490A686FF30F020A600B6845F25552F8
:100CE00013430B60091D0B6823F0FF030B60091D04
:100CF0000B686FF30F030B600B68540023430B600A
:100D0000091D0B686FF30F030B600B6813430B6037
:100D1000016841F00201016022490A6822F03F02A5
:100D20000A600A6842F015020A60091D0A6822F08A
:100D300007020A60091D0A6822F03F020A600A6879
:100D400042F02A020A60091D0A6822F03F020A6086
:100D50000A6842F015020A60016841F00101016071
:100D60001148016821F040410160016841F0804173
:100D70000160416821F400414160816821F04041F7
:100D80008160816841F000418160C16821F040418B
:100D9000C160C16841F08041C16010BD303802407F
:100DA000000C02400004024000000240082804D267
:100DB000024931F8200002490880704738230008B2
:100DC000180C024010B5084904460120088002E0D2
:100DD000641C00F00BF820780028F9D1BDE8104021
:100DE0000120FFF747BE0000180402402DE9F04142
:100DF0000B4EFF2504463580B71E00F0F00038800A
:100E0000FFF700FF0120FFF735FE35802007000EB9
:100E10003880FFF7F7FEBDE8F0410120FFF72ABE5A
:100E20001A0C0240FEE770477047000010B5064CF0
:100E3000606940F0100060610120FFF71BFE6069EF
:100E400020F01000606110BD0010024010B5064C8B
:100E5000606940F0200060610120FFF70BFE6069CF
:100E600020F02000606110BD00100240044A0029FB
:100E7000116801D0014300E0814311607047000018
:100E800030380240044A0029116801D0014300E0D3
:100E9000814311607047000040380240044A002935
:100EA000116801D0014300E08143116070470000E8
:100EB00020380240704700000948016841F01001E5
:100EC00001600848016889B20160816889B2816067
:100ED0008168054A11438160C16889B2C160704769
:100EE00030380240001002400000AAAA0148006900
:100EF00070470000001002400CB500202749019007
:100F000000900A6842F480320A604FF4A0630A68D5
:100F100002F400320092019A521C0192009A12B916
:100F2000019A9A42F3D10A68920334D501200090C5
:100F30001A484030026842F0805202601848026845
:100F400042F480420260154808300268026002687C
:100F500042F400420260026842F4A0520260031FA1
:100F6000104A1A600A6842F080720A600A689201A8
:100F7000FCD50D4A40F205611160016821F00301C2
:100F80000160016841F0020101600168C1F3810163
:100F90000229FAD10CBD00900CBD000000380240BF
:100FA0000070004019544007003C0240024841686C
:100FB000491C4160704700001800002070B51A4CB1
:100FC00020681A4A10F00C01194804D05510042961
:100FD00003D0082903D002601BE0056019E0124924
:100FE000091F0B68C3F380560B6803F03F0316B16B
:100FF000B5FBF3F201E0B2FBF3F20B680968C3F34F
:1010000088135A43C1F30141491C4900B2FBF1F175
:1010100001602168064AC1F30311121D515C026888
:10102000CA40026070BD0000083802400024F4008D
:1010300000000020124810B5016841F47001016001
:101040001048016841F0010101600E4A0021083298
:10105000116002680C4B1A400260031D0B4A1A60B3
:10106000026822F48022026006480C300160FFF71B
:1010700043FF03494FF000608039086010BD000055
:1010800088ED00E000380240FFFFF6FE103000243B
:10109000094810B50168094C491C0160012120462E
:1010A00000F03DF808B1032100E002212046BDE830
:1010B000104000F027B80000140000200004004099
:1010C0003EB501211020FFF7DDFE684600F07AF8FA
:1010D000012001900020ADF80000094CADF8080097
:1010E000ADF802006946204600F02EF82021204687
:1010F00000F021F80121204600F007F83EBD000075
:1011000000100040C943018270470029018802D0C5
:1011100041F0010101E021F0010101807047024628
:101120000020138A92890B4202EA010202D0002AAF
:1011300000D001207047828822F07002828082886D
:101140000A4382807047000030B50288164B174C66
:1011500098420DD0A0420BD0B0F1804F08D0144D72
:10116000A84205D0134DA84202D0134DA84203D186
:1011700022F070054A882A43104DA84206D0104D2F
:10118000A84203D022F440750A892A4302804A68A3
:10119000C2620A880285984201D0A04201D1897AB0
:1011A00001860121818230BD000001400004014020
:1011B0000004004000080040000C00400010004007
:1011C000001400404FF0FF31416000210180018197
:1011D000418081727047FEE703B401984100009896
:1011E00050EAC12018BF04204A0D18BF40F001008A
:1011F00040F2FF72B2EB515F08BF40F002000128DD
:1012000008BF052002B070472DE9F04D2DED040B0D
:101210002DED0E8B94B0DDE92350259CDDF888A0E0
:1012200025F0004624F00048BAF1000F14BF012158
:10123000002101EB4502FE4953184A1093422AD37C
:10124000002814BF0123002303EB44030B44F94996
:101250008B4220D358EA00019FEDF78B6FD0DFF867
:10126000E0B35D4503D1BAF1000F05D181E0BAF1D9
:10127000000F08BF002100D0012101EB450111F54D
:10128000001F08D8002814BF0121002101EB4401F0
:1012900011F5001F0AD99DED240B53EC102B9DED89
:1012A000220B51EC100BFEF79DFF40E00027002DB4
:1012B000BCBFE449884521DAE3498845A8BF022735
:1012C0001CDAC3451ADCE14901EB2851142908DD79
:1012D000C1F1340220FA02F101FA02F282420DD188
:1012E00008E058B9C1F1140228FA02F101FA02F239
:1012F000424503D101F00101C1F1020756EA0A019A
:101300009FEDD3AB1CD1002C1ADA002D18BF022F91
:1013100001D0012F07D0022000F05AFE53EC1A2B07
:1013200051EC180B05E1022000F052FE7DE041EC8B
:10133000100B14B0BDEC0E8B04B0BDE8F08D18E0BE
:101340009FEDC5BB9FEDC69B002877D1BD4880456A
:1013500022D105F1804010F5801008BFBAF1000FCE
:1013600007D0B3450ADC002CA8BF9DED240BE0DAC2
:101370000DE0B0EE480AF0EE680ADAE7002C06DA73
:101380009DED240B51EC100B81F00041CFE7B648E6
:10139000784490ED000BCCE7D84553D1002C4EDAC1
:1013A0002EB1864240D1BAF1000F48D12CE0BAF1FB
:1013B000000F19D0022000F00BFE53EC192B51EC5A
:1013C000190BFEF7B6FF41EC100B8DED020B9DEDF6
:1013D000220B8DED000B10EE900A039961F31E00B5
:1013E00003909DED020BA4E78DED02BB9DED220B5A
:1013F0001BEE901A10EE900A8DED000B61F31E00AB
:1014000003909DED020B94E78DED02AB9DED220B59
:101410001AEE901A10EE900A8DED000B61F31E008B
:1014200003909DED020B84E709DA9DED220B51EC50
:10143000180B53EC102BFEF7EEFF78E71DE09DED47
:10144000220B76E7864218DAB4F1804F0DD0A4F172
:101450000050B0F1FF5010D1002D0EDB9DED220B9E
:1014600051EC100B00F0E0FE61E79DED220B53EC18
:10147000102B51EC100B00F0E1BC9DED220B51EC58
:10148000100B00F0ABFD41EC100BBAF1000F8DED2D
:10149000120B34D19FED760BDEB1A6F1E040B0F136
:1014A0007F602CD1002D01DD002C0DDA002D01DD37
:1014B000002C1FDB002D16DA002C14DB012F08BFD7
:1014C0009FED6D0B3FF435AFB0EE4B0AF0EE6B0ABB
:1014D0002FE7022F18BF002D0CD0012F0AD1002DAD
:1014E000FFF627AF06E0002DB8BF002C07DA012F6A
:1014F0003FF41FAFB0EE4A0AF0EE6A0A19E7012086
:1015000000EBE570049038430CD05D480025804521
:101510007DDD5C495C48884513DDB0420CDB002C66
:1015200018DB30E0012000F053FD53EC1A2B51EC96
:101530001A0BFEF770FFFAE6B34502DC002C09DC5B
:1015400021E0864202DA002C1DDA03E05E452DDD43
:10155000002C18DD022000F03BFD53EC192B51EC60
:10156000190BFEF7E6FE41EC100B1BEE900A10EE95
:10157000901A8DED020B8DED00BB61F31E00039000
:101580009DED020BD5E6022000F022FD00F000FDEB
:1015900010EE901A18EE900A8DED020B8DED008B77
:1015A00061F31E0003909DED020BC2E69DED220B40
:1015B00053EC182B51EC100BFEF7B5FE41EC100B61
:1015C0008DED0C0B9FED320B53EC102B9DED0C0BA6
:1015D00051EC100BFEF7ADFE9FED2F1B53EC112BC2
:1015E000FEF7A4FE9DED0C1B53EC112BFEF7A1FEA4
:1015F0009FED2B1B53EC112BFEF798FE9DED0C0B72
:1016000041EC1A0B53EC102B51EC100B00E08AE06C
:10161000FEF78FFE53EC1A2BFEF78BFE9FED220B8D
:1016200041EC1B0B53EC102B9DED0C0B40E000002C
:10163000FFFF1F00FFFF0F00000000000000F03F51
:101640000000F03F0000F07F0000404301FCFFFF7E
:101650000000000000000000000000000000F07F1B
:1016600000000000000000704C10000000000000AE
:101670000000000000000080000000000000F0FFFB
:101680000000E0410000F043FFFFEF3F00000000DA
:10169000000000000000D03F555555555555D53F29
:1016A000000000000000E03F000000604715F73F29
:1016B00051EC100BFEF73DFE41EC1A0B9FEDFE0BBB
:1016C00051EC1B0B53EC102BFEF733FE41EC1B0BC4
:1016D0009FEDFB0B53EC102B9DED0C0B51EC100B05
:1016E000FEF727FE53EC1B2BFEF71DFE41EC1B0BF8
:1016F00051EC1A0B53EC1B2BFEF774FD41EC100B55
:1017000053EC1A2B8DED080B08959DED080B51EC51
:10171000100BFEF708FE53EC1B2BFEF707FE41EC07
:10172000100B00F0AFB90020B6F5801F11DA9FED65
:10173000E60B53EC102B9DED120B51EC100BFEF74A
:10174000F8FD41EC100B6FF0340010EE906A8DED57
:10175000120BDF4900EB2650A0F2FF38C6F313004E
:1017600040F07F6646F040568842D8BF002409DD2D
:10177000D8498142C8BF012404DC002408F10108D3
:10178000A6F58016D448784400EBC40A13969AED67
:10179000000B53EC102B9DED120B51EC100BFEF7D0
:1017A000C2FD9AED000B41EC1B0B53EC102B9DED91
:1017B000120B51EC100BFEF715FD41EC100B51EC28
:1017C000180B53EC102BFEF726FE41EC1C0B51ECD2
:1017D0001B0B53EC1C2BFEF7ACFD41EC1A0BBF4866
:1017E0008DED0AAB78440A9590ED000B4FF0005058
:1017F00040EA660000EB84408DED100B00F5002000
:1018000011909AED000B53EC102B9DED100B51EC49
:10181000100BFEF788FD9DED121B53EC112BFEF70C
:1018200085FD41EC100B53EC102B9DED0A0B51EC98
:10183000100BFEF77EFD9DED100B41EC1D0B53ECE4
:10184000102B9DED0A0B51EC100BFEF772FD53ECC3
:101850001B2BFEF76BFD53EC1D2BFEF764FD53ECC9
:101860001C2BFEF766FD41EC1C0B53EC1A2B51ECC4
:101870001A0BFEF75EFD41EC1B0B99480621B0EEFA
:101880004B0AF0EE6B0A784400F006FBB0EE40DA4B
:10189000F0EE60DA53EC1B2B51EC1B0BFEF749FD0D
:1018A00053EC1D2BFEF745FD9DED0A0B41EC1B0B88
:1018B00053EC1A2B51EC100BFEF794FC53EC1C2B41
:1018C000FEF737FD53EC1B2BFEF78CFC9DED0A0B4E
:1018D00041EC1D0B53EC102B51EC100BFEF729FDC6
:1018E00041EC1B0B9FED80EB53EC1E2BFEF77AFCBB
:1018F00053EC1D2BFEF776FC41EC100B53EC1E2B2A
:101900008DED100B10959DED100B51EC100BFEF7AB
:101910000AFD53EC1B2BFEF706FD53EC1D2BFEF7C7
:1019200005FD9DED100B41EC1D0B53EC102B9DEDB7
:101930000A0B51EC100BFEF7FCFC41EC1B0B53ECBB
:101940001A2B51EC1D0BFEF7F4FC9DED100B41EC36
:101950001A0B53EC102B51EC1C0BFEF7EAFC53EC6A
:101960001A2BFEF73FFC41EC1A0B51EC1B0B53EC0E
:101970001A2BFEF737FC41EC100B53EC1B2B8DEDB3
:101980000A0B0A959DED0A0B51EC100BFEF7CBFCF0
:1019900053EC1A2BFEF7CAFC41EC1A0B9FED540BCB
:1019A00053EC102B9DED0A0B51EC100BFEF7C1FC14
:1019B00041EC1B0B9FED500B51EC1A0B53EC102B11
:1019C000FEF7B7FC41EC1A0B9FED4D0B53EC102BBF
:1019D0009DED0A0B51EC100BFEF7ABFC53EC1A2BF0
:1019E000FEF700FC41EC100B4748784400EBC400C4
:1019F00090ED001B51EC100B53EC112BFEF7F2FB9A
:101A000041EC1A0B4046FEF73BFE41EC100B53EC49
:101A10001A2B8DED0C0B51EC1B0BFEF7E3FB41EC8D
:101A2000100B3A48784400EBC40451EC100B94EDD1
:101A3000001B53EC112BFEF7D5FB9DED0C1B53EC5B
:101A4000112BFEF7CFFB41EC100B8DED080B089529
:101A50009DED0C0B53EC102B9DED080B51EC100B76
:101A6000FEF761FC94ED000B53EC102BFEF75BFCD2
:101A700053EC1B2BFEF757FC53EC1A2BFEF756FCCE
:101A800041EC100B0498791EB0EE48BAF0EE68BA3B
:101A9000084308BF9FED1E8B9DED241B53EC102BBC
:101AA0008DED001B00959DED240B51EC100BFEF706
:101AB00040FC41EC1A0B2FE0FE822B654715F73FE7
:101AC00044DF5DF80BAE543E0000000000004043D0
:101AD0008E9803007AB60B00CE0B0000F80B0000C6
:101AE000FE0A0000000000000000000000000840A6
:101AF000000000E009C7EE3FFD033ADC09C7EE3FF6
:101B0000F5015B14E02F3EBE8A0900004009000089
:101B1000000000000000F0BF9DED000B53EC102B07
:101B20009DED240B51EC100BFEF7FDFB9DED081B0A
:101B300053EC112BFEF7FDFB53EC1A2BFEF752FB77
:101B40009DED080B41EC1A0B53EC102B9DED000B97
:101B500051EC100BFEF7EDFB41EC100B51EC1A0BA6
:101B60008DED0A0B53EC102BFEF73CFB41EC100BF8
:101B7000B54910EE904A10EE100A8DED020B8C4222
:101B800035DB611A084318D19DED0A0B53EC102B7D
:101B90009DED020B51EC100BFEF7C5FB41EC1C0B4D
:101BA0009FEDAB0B51EC1A0B53EC102BFEF71AFB0D
:101BB00053EC1C2BFEF776FD33D2022000F008FA1E
:101BC00053EC192B51EC190BFEF7B3FB41EC100B46
:101BD00018EE900A10EE901A8DED020B8DED008B31
:101BE00061F31E0003909DED020BFFF7A2BB9A4A22
:101BF00024F00041914214D39849214408437FF4D2
:101C0000C2AC9DED0A0B53EC102B9DED020B51EC79
:101C1000100BFEF788FB53EC1A2BFEF743FD7FF603
:101C2000B2AC24F000408E498E4A002601EB2051D0
:101C30009042D8BF9DED0A0B2DDD481C4FF480115A
:101C400021FA00F02044C0F30A51874AA1F2FF3183
:101C50007A4492ED000B854A8DED0C0BCA4020EAC8
:101C60000202C0F3130040F48010C1F1140120FA05
:101C700001F60D92002CB8BF76429DED0C0B53EC93
:101C8000102B9DED0A0B51EC100BFEF74CFB41ECB9
:101C9000100B8DED0A0B53EC102B51EC1A0BFEF7C9
:101CA000A1FA41EC100B8DED0C0B9FED710B0C9517
:101CB00053EC102B9DED0C0B51EC100BFEF739FB88
:101CC00041EC190B9FED6C0B53EC102B9DED0C0BA5
:101CD00051EC100BFEF72DFB9DED0A0B41EC1C0B9C
:101CE00053EC102B9DED0C0B51EC100BFEF71BFB76
:101CF00053EC1A2BFEF71AFB9FED611B53EC112BD3
:101D0000FEF717FB53EC1C2BFEF76CFA41EC1A0B99
:101D100051EC190B53EC1A2BFEF764FA41EC100B43
:101D200053EC192B8DED020BFEF7FDFA53EC1A2B39
:101D3000FEF7FCFA9DED020B41EC190B53EC102B56
:101D400051EC100BFEF7F5FA41EC100B4E488DEDFF
:101D50000C0B0521784400F09FF89DED0C1B51EC15
:101D6000100B53EC112BFEF7E4FA9DED021B53EC24
:101D7000112BFEF7DBFA41EC100B53EC192B8DED18
:101D8000080B9DED020B51EC100BFEF7D2FA53EC51
:101D9000192BFEF727FA9FED3E0B41EC1A0B53EC83
:101DA000102B9DED080B51EC100BFEF7BCFA9DEDCE
:101DB000080B41EC190B53EC102B9DED020B51EC71
:101DC000100BFEF7B6FA53EC192BFEF724FB53EC7D
:101DD0001A2BFEF7A8FA9DED021B53EC112BFEF710
:101DE000A2FA53EC1B2BFEF7A1FA41EC100B10EEFC
:101DF000900A8DED020B00EB065001150029C4BFBF
:101E000003909DED020B15DC324651EC100BFEF7F2
:101E100020FCFFF7E1F9042808BF00F0B9F83246CA
:101E20009DED020B51EC100BFEF713FC41EC100B77
:101E30008DED020B53EC102B51EC180BFEF779FAD9
:101E4000FFF775BA0000000000009040000000009D
:101E5000FE822B654715973C00CC904000346F3FC5
:101E600001FCFFFF0000E03F8C070000FFFF0F00B8
:101E700000000000432EE63F396CA80C615C20BED8
:101E8000EF39FAFE422EE63F600600000000000037
:101E9000000000000000004070B504462DED028BEC
:101EA0004D1E00EBC500B0EE408AF0EE608A90ED6A
:101EB000000B35F0060017D053EC182B51EC100B2B
:101EC000FEF737FA41EC100B6D1E04EBC50090EDE8
:101ED000001B51EC100B53EC112BFEF783F941EC76
:101EE000100B35F00600E7D1022D36D0042D1CD0A2
:101EF000062D1CBFBDEC028B70BD53EC182B51ECB2
:101F0000100BFEF716FA94ED0A1B53EC112BFEF79B
:101F100069F953EC182BFEF70CFA94ED080B53EC0F
:101F2000102BFEF75FF941EC100B53EC182B51EC22
:101F3000100BFEF7FEF994ED060B53EC102BFEF799
:101F400051F953EC182BFEF7F4F994ED041B53EC04
:101F5000112BFEF747F941EC100B53EC182B51EC09
:101F6000100BFEF7E6F994ED020B53EC102BFEF785
:101F700039F953EC182BFEF7DCF994ED000B53EC18
:101F8000102BFEF72FF9BDEC028B41EC100B70BD4E
:101F90009FED050B10B553EC102B51EC100BFEF719
:101FA000C8F941EC100B10BD00000000000000104B
:101FB00002E008C8121F08C1002AFAD17047704712
:101FC000002001E001C1121F002AFBD17047000070
:101FD00001490860704700003000002041EC100B00
:101FE00082B010EE900A8DED000B20F000400190C1
:101FF0009DED000B02B051EC100B7047FEF7DEFFB9
:1020000064484FF47A710068B0FBF1F0B0F1807F62
:1020100039D220F07F414FF0E020491E41615E4AF5
:10202000F0211170002181610721016162B6FEF784
:10203000B1FBFEF741FFFEF745FEFEF789FCFEF718
:102040003FFCFEF7EDFD0A20FEF714FDFEF70AFE49
:10205000FEF7E6FD0120FEF7A9FE0220FEF70AFDCD
:10206000FEF7C2FDFEF74AFCFEF7CEFBFEF7B0FB23
:1020700000210846FEF7DCFD48A0FEF7A3FE494C10
:102080004FF4807500E0FEE7FEF730FFA8420BD169
:102090009FED450B84ED040BFEF7A6FD00210846DD
:1020A000FEF7C6FD42A036E0B0F5007F28D0B0F5BF
:1020B000806F33D0B0F5006F3CD0B0F5805F45D075
:1020C000B0F5005F4ED0B0F5804F57D0B0F5004F5F
:1020D000DAD194ED040B53EC102B94ED020B51EC80
:1020E000100BFEF77FF800BF41EC100B84ED020BE4
:1020F000FEF756FC01210020FEF79AFD2FA00AE012
:102100009FED300B84ED040BFEF76EFD00210846B9
:10211000FEF78EFD2DA0FEF755FEB5E79FED2D0BCA
:1021200084ED040BFEF760FD00210846FEF780FDFC
:102130002AA0F0E79FED2C0B84ED040BFEF754FD75
:1021400000210846FEF774FD29A0E4E79FED2B0B64
:1021500084ED040BFEF748FD00210846FEF768FDFC
:1021600028A0D8E79FED2A0B84ED040BFEF73CFD79
:1021700000210846FEF75CFD27A0CCE794ED040B98
:1021800053EC102B94ED020B51EC100BFEF7CBF837
:10219000AAE700000000002023ED00E054657374FE
:1021A000696E6700180000207B14AE47E17A843F17
:1021B000496E63203D20302E30310000467265713B
:1021C000203D2000000000000000F03F496E632029
:1021D0003D2031000000000000005940496E63209E
:1021E0003D203130300000000000000000408F40F2
:1021F000496E63203D203130303000000000000087
:10220000006AF840496E63203D20313030303000A4
:102210000000000080842E41496E63203D20313053
:10222000303030303000000000B52DED048B83B02D
:1022300041EC180BFEF75CFA41EC190B19EE100A91
:1022400019EE901A8DED009B002818BF012008435D
:1022500020F00040C0F17F6000F1E040C00F14D0DA
:1022600018EE101A18EE900A8DED008B002918BF99
:102270000121084320F00040C0F17F6000F1E04000
:10228000C00F04BF0120FFF7A3FE51EC190B03B0F0
:10229000BDEC048B00BD0000000000000000000049
:1022A000000000000100000001000000010000002B
:1022B000000000000000000000000000010000001D
:1022C000010000000000000000000000000000000D
:1022D00000000000010000000000000000000000FD
:1022E00000000000000000000000000000000000EE
:1022F00000000000000000000000000000000000DE
:1023000000000000000000000000000000000000CD
:1023100000000000000000000000000000000000BD
:1023200000000000000000000000000000000000AD
:10233000000000000000000001000000020000009A
:102340000400000008000000100000002000000051
:102350004000000080000000000000000000F03F8E
:10236000000000000000F83F000000000000000036
:102370000000004003B8E23F000000000000000041
:1023800006D0CF43EBFD4C3E033333333333E33FCF
:10239000FFAB6FDBB66DDB3F4D268F515555D53FFB
:1023A00001411DA96074D13F65DBC9934A86CD3FC9
:1023B000EF4E454A287ECA3F3E5555555555C53FB7
:1023C00093BDBE166CC166BF2CDE25AF6A56113FA9
:1023D000F16BD2C541BDBBBED0A4BE726937663EAB
:1023E0000000000000000000082400080000002099
:1023F00034000000B01F00083C2400083400002016
:1024000014040000C01F0008007A030A0000000046
:102410000000000001020304060708090000000094
:1024200000000000000000000000000000408F409D
:0C243000000000000000F03F0000000071
:040000050800018965
:00000001FF
