:020000040800F2
:10000000300400209D0100087F0C00083D0A000814
:100010007D0C0008CD070008B30E000800000000AA
:10002000000000000000000000000000C50C0008F7
:100030007109000800000000810C0008810D000813
:10004000B7010008B7010008B7010008B7010008B0
:10005000B7010008B701000889090008B7010008C6
:10006000B7010008B7010008B7010008B701000890
:10007000B7010008B7010008B7010008B701000880
:10008000B7010008B7010008B7010008B701000870
:10009000B7010008B7010008B7010008B701000860
:1000A000B7010008B7010008B7010008B701000850
:1000B000B7010008650E0008B7010008B701000885
:1000C000B7010008B7010008B7010008B701000830
:1000D000B7010008B7010008B7010008B701000820
:1000E000B7010008B7010008B7010008B701000810
:1000F000B7010008B7010008B7010008B701000800
:10010000B7010008B7010008B7010008B7010008EF
:10011000B7010008B7010008B7010008B7010008DF
:10012000B7010008B7010008B7010008B7010008CF
:10013000B7010008B7010008B7010008B7010008BF
:10014000B7010008B7010008B7010008B7010008AF
:10015000B7010008B7010008B7010008B70100089F
:10016000B7010008B7010008B7010008B70100088F
:10017000B7010008B7010008B7010008B70100087F
:10018000B7010008B7010008DFF80CD000F09EFAB4
:1001900000480047DD1C0008300400200648804766
:1001A00006480047FEE7FEE7FEE7FEE7FEE7FEE75C
:1001B000FEE7FEE7FEE7FEE7090E000889010008FA
:1001C00040EA01039B0703D009E008C9121F08C0D9
:1001D000042AFAD203E011F8013B00F8013B521E59
:1001E000F9D270472DE9FE4F804681EA0300C00F27
:1001F0000C46009021F0004123F00045B8EB0200CE
:10020000A94105D24046214690461C460B4602466F
:1002100023F00040104304D14046214603B0BDE81E
:10022000F08F270DC7F30A00C3F30A510290401A5A
:100230000190402866DAC3F3130040F4801B009855
:10024000924620B10023D2EB030A63EB0B0B01981B
:100250005946C0F14002504600F06BF906460D4683
:1002600050465946019A00F083F910EB08006141AD
:10027000002487EA115284EAE7731A433BD0009ABC
:100280003AB3019A012A4FEA075210DC001B61EBD6
:1002900002014FF0004202EA0752CDE90042001C81
:1002A00041F5801132462B4600F081F9B6E7001B7C
:1002B00061EB0201001C41F5801300185B4120181E
:1002C000A2F5001747EB030140EAD570B6196D415E
:1002D00011E06D084FEA360645EAC0754FEA07524D
:1002E000001B61EB0201001C41F5801149084FEA37
:1002F00030000019514132462B4603B0BDE8F04FA3
:1003000000F048B90098012240000023D0EB02021F
:1003100063EBE073009821464FEAE074B8EB00000D
:1003200061EB0401E9E783F000435BE781F0004102
:1003300058E72DE9FE4F81EA030404F0004421F060
:10034000004100944FF0000B23F0004350EA0104F9
:1003500002D052EA030404D10020014603B0BDE8F4
:10036000F08FC3F30A54C1F30A552C44A4F2F334BA
:100370000194A0FB0254C1F3130141F48011C3F3B3
:10038000130343F4801301FB024400FB034E840A71
:10039000970A44EA815447EA8357A4FB0768029509
:1003A0008D0A05FB07854FEA932C04FB0C542705A7
:1003B000029D4FEA065847EA1637B5EB08056EEB83
:1003C000070C870E920E47EA811742EA8312A7FBB9
:1003D0000201B6EB0B0164EB00042B0D43EA0C3376
:1003E0005E1844EB1C50DA465146E7FB0201C5F3A8
:1003F00013044FEA0B3343EA14534FEA0432019CCF
:1004000043EA0603A4F10C040294009CCDE900B475
:1004100000F0CDF8A2E72DE9F04D81EA030404F0E5
:10042000004B21F0004514464FF0000A23F0004134
:1004300050EA050220D054EA01021DD0C5F30A5744
:100440000246C5F31303C1F31300C1F30A5640F487
:10045000801543F48013A7EB0608101BD64608F25C
:10046000FD3873EB050002D308F1010801E0921892
:100470005B41B8F1000F03DA00200146BDE8F08DC2
:1004800000204FF48011064684460EE0171B73EBE4
:10049000050705D3121B63EB050306434CEA010C69
:1004A00049084FEA300092185B4150EA0107EDD14C
:1004B00052EA030012D082EA040083EA05010843ED
:1004C00003D100224FF0004308E0101BAB4102D2E1
:1004D0000122002302E06FF0010253101AEB060024
:1004E0004CEB085110EB0A0041EB0B01BDE8F04D5D
:1004F00000F050B870B5C1F30A5201F00045002475
:10050000C1F3130140F2FF3341F480119A4201DA42
:10051000002070BD40F233439A42A2F2334203DC22
:10052000524200F015F800E090402C43F1D04042D8
:1005300070BD202A04DB203A00FA02F10020704747
:100540009140C2F1200320FA03F319439040704711
:10055000202A04DB203A21FA02F00021704721FA18
:1005600002F3D040C2F1200291400843194670477F
:10057000202A06DBCB17203A41FA02F043EAE07367
:1005800006E041FA02F3D040C2F120029140084354
:100590001946704710B5002B08DA401C41F10001E4
:1005A00092185B411A4301D120F0010010BD2DE9E2
:1005B000F04D92469B4611B1B1FA81F202E0B0FAD9
:1005C00080F220329046FFF7B4FF04460F4640EA1F
:1005D0000A0041EA0B0153465A46084303D120461C
:1005E0003946BDE8F08D114653EA010015D0C8F137
:1005F00040025046FFF7ACFF05460E4650465946AE
:100600004246FFF796FF084301D0012000E000209A
:10061000054346EAE0762C4337430A984FEA4453B1
:10062000A0EB08004FEAD4240A304FF0000244EA5D
:1006300047544FEAD72502D500200146D1E70105EE
:1006400010196941DDE9084500196941BDE8F04D1F
:10065000A0E770B521F0004303430CD0C1F30A5565
:100660000024D5EB040564EB0403D617AD1AB3419F
:1006700002DB0020014670BD201841EB025170BD25
:100680000EB5C10F80EAE0700844CA07002140F2AD
:1006900033438DE80E000A460B46FFF788FF03B090
:1006A00000BD000030B5002904DB4FF0004440429B
:1006B00064EB0101002B04DB4FF00044524264EB79
:1006C0000303994208BF904230BD0000064C074D1D
:1006D00006E0E06840F0010394E807009847103412
:1006E000AC42F6D3FFF754FDB01F0008D01F00083E
:1006F0002DE9F04D00231A461B1A8A4103DB002026
:100700000146BDE8F08DC1F30A52C1F3130141F473
:1007100080154FF0000BD10702D100186D41521E19
:100720000027044640F2FF11384601EB620A3E46BC
:100730008046024600204FF48011FFF709FFC219DE
:100740007141BB1846EB0100B4EB030C75EB000CD8
:1007500004D3E41A65EB000517460E46241908F188
:1007600001006D4180463428E3DDF91946EB0600AF
:10077000091BA84103D24FF0FF32134601E00022CB
:1007800013461BEB070046EB0A51BDE8F04DFFF79F
:1007900001BF00000B48016841F0010101600A48F7
:1007A000016821F003010160816821F0030181608B
:1007B000816841F002018160C16821F00301C160DC
:1007C000704700003038024000000240FEE70000A1
:1007D0000848016841F001010160064808300168DD
:1007E00041F0010101600448016821F00F0101603E
:1007F00070470000003C01400C38014030B5A9B002
:100800000024A02211496846FFF7DAFC00F03AFA0A
:10081000012000F0AFF800F045FA012000F0AAF83E
:100820004FEA0D0500F09CF855F8240000F090F810
:10083000012000F09FF800F025FA641C282CF1DB61
:1008400000F030FA00F08CF829B030BD601E0008CE
:100850001148016841F0100101601048016821F45D
:100860007C610160016841F4A8610160416821F088
:1008700038014160816821F47C618160816841F4C4
:1008800028618160C16821F47C61C160C16841F464
:10089000A861C1607047000030380240001002407B
:1008A00030B500242DED028BB0EE408AF0EE608A68
:1008B000A9B09FED211B9FED220B00F015FB53EC1F
:1008C000182B51EC100BFFF734FD9FED1F1B53EC61
:1008D000112BFFF7A0FDFFF70DFE01224FEA0D05DA
:1008E00002FA04F1014000D0012145F82410641CF3
:1008F000282CF5DB00F0C6F9012000F03BF800F0F1
:10090000D1F9012000F036F85FF0000400F028F87B
:1009100055F8240000F01CF8012000F02BF800F03E
:10092000B1F9641C282CF1DB00F0BCF900F018F8D8
:1009300029B0BDEC028B30BD00000000000040403B
:1009400000000000000000400000000065CD9D4157
:1009500002494A6942EAC0004861704700100240FB
:100960000248416921F008014161704700100240CE
:1009700070470000034A516853685B1A8342FBD3F7
:10098000704700001800002010B500F059F8002151
:10099000084600F079F81349086830B1012808D0FA
:1009A00002280AD003280ED016E0012008600EA00D
:1009B00006E00220086010A002E00320086013A0F7
:1009C00000F02CF908E00020086015A000F026F9DE
:1009D0009FED170BFFF764FF1748016841F0010115
:1009E000016010BD180000204672657175656E6368
:1009F00079204D65746572004E6F69736520476597
:100A00006E65726174696F6E000000004172626908
:100A1000746F72792046756E6374696F6E000000A2
:100A2000576176652047656E65726174696F6E0007
:100A30000000000000408F40143C0140FEE7000031
:100A4000054910B50120088000F0FCF8BDE8104011
:100A50000A20FFF78FBF00001A04024010B50548B6
:100A6000042404800120FFF785FF0248801C0480D5
:100A700010BD00001804024002494FF400400883F2
:100A800070470000000002400B4B10B501221A8095
:100A900011B1012905D009E000F03F0040F08000CD
:100AA00002E0C0B240F0C00000F0CCF8BDE8104059
:100AB0000120FFF75FBF00001A04024010B51420A8
:100AC000FFF758FF13480421018001210180022112
:100AD00001801420FFF74EFF0F4920200880FFF708
:100AE000BDFF0120FFF746FFFFF7B8FF0120FFF72A
:100AF00041FFFFF7B3FF1420FFF73CFF282000F071
:100B0000A1F80C2000F09EF8BDE81040062000F08F
:100B100099B800001A040240180C0240354810B57C
:100B2000016841F00801016033490A686FF30F0260
:100B30000A600B6845F2555213430B60091D0B68A0
:100B400023F0FF030B60091D0B686FF30F030B60AD
:100B50000B68540023430B60091D0B686FF30F03F0
:100B60000B600B6813430B60016841F002010160E8
:100B700022490A6822F03F020A600A6842F0150220
:100B80000A60091D0A6822F007020A60091D0A6846
:100B900022F03F020A600A6842F02A020A60091D38
:100BA0000A6822F03F020A600A6842F015020A60F1
:100BB000016841F0010101601148016821F04041E4
:100BC0000160016841F080410160416821F4004109
:100BD0004160816821F040418160816841F00041BD
:100BE0008160C16821F04041C160C16841F080412D
:100BF000C16010BD30380240000C024000040240C9
:100C000000000240082804D2024931F820000249BD
:100C100008807047001F0008180C024010B50849F2
:100C200004460120088002E0641C00F00BF82078E4
:100C30000028F9D1BDE810400120FFF79BBE00005D
:100C4000180402402DE9F0410B4EFF250446358083
:100C5000B71E00F0F0003880FFF700FF0120FFF71B
:100C600089FE35802007000E3880FFF7F7FEBDE8CB
:100C7000F0410120FFF77EBE1A0C0240FEE77047EC
:100C80007047000010B5064C606940F010006061CC
:100C90000120FFF76FFE606920F01000606110BD59
:100CA0000010024010B5064C606940F02000606101
:100CB0000120FFF75FFE606920F02000606110BD39
:100CC00000100240704700000948016841F010011F
:100CD00001600848016889B20160816889B2816059
:100CE0008168054A11438160C16889B2C16070475B
:100CF00030380240001002400000AAAA01480069F2
:100D000070470000001002401948016841F080510E
:100D100001601848016841F4804101601448383886
:100D200001680160016841F400410160016841F41B
:100D3000A0510160021F10491160111F0A6842F0A2
:100D400080720A600A689201FCD50C4A40F2056183
:100D50001160016821F003010160016841F00201A6
:100D600001600168C1F381010229FAD170470000D6
:100D7000403802400070004010540007003C024020
:100D800002484168491C416070470000180000207B
:100D900070B51A4C20681A4A10F00C01194804D09A
:100DA0005510042903D0082903D002601BE0056018
:100DB00019E01249091F0B68C3F380560B6803F052
:100DC0003F0316B1B5FBF3F201E0B2FBF3F20B689F
:100DD0000968C3F388135A43C1F30141491C490010
:100DE000B2FBF1F101602168064AC1F30311121D43
:100DF000515C0268CA40026070BD000008380240C1
:100E00000024F40000000020124810B5016841F4ED
:100E1000700101601048016841F0010101600E4A53
:100E200000210832116002680C4B1A400260031D59
:100E30000B4A1A60026822F48022026006480C30D5
:100E40000160FFF761FF03494FF0006080390860DF
:100E500010BD000088ED00E000380240FFFFF6FE04
:100E600010300024094810B50168094C491C016084
:100E70000121204600F011F808B1032100E0022111
:100E80002046BDE8104000F005B800001400002026
:100E900000040040C9430182704702460020138AC3
:100EA00092890B4202EA010202D0002A00D00120FE
:100EB0007047FEE703B401984100009850EAC12052
:100EC00018BF04204A0D18BF40F0010040F2FF7225
:100ED000B2EB515F08BF40F00200012808BF0520B7
:100EE00002B07047000000002DE9F04D2DED040B1D
:100EF0002DED0E8B94B0DDE92350259CDDF888A004
:100F000025F0004624F00048BAF1000F14BF01217B
:100F1000002101EB4502FE4953184A1093422AD39F
:100F2000002814BF0123002303EB44030B44F949B9
:100F30008B4220D358EA00019FEDF78B6FD0DFF88A
:100F4000E0B35D4503D1BAF1000F05D181E0BAF1FC
:100F5000000F08BF002100D0012101EB450111F570
:100F6000001F08D8002814BF0121002101EB440113
:100F700011F5001F0AD99DED240B53EC102B9DEDAC
:100F8000220B51EC100BFFF72DF940E00027002D4C
:100F9000BCBFE449884521DAE3498845A8BF022758
:100FA0001CDAC3451ADCE14901EB2851142908DD9C
:100FB000C1F1340220FA02F101FA02F282420DD1AB
:100FC00008E058B9C1F1140228FA02F101FA02F25C
:100FD000424503D101F00101C1F1020756EA0A01BD
:100FE0009FEDD3AB1CD1002C1ADA002D18BF022FB5
:100FF00001D0012F07D0022000F05AFE53EC1A2B2B
:1010000051EC180B05E1022000F052FE7DE041ECAE
:10101000100B14B0BDEC0E8B04B0BDE8F08D18E0E1
:101020009FEDC5BB9FEDC69B002877D1BD4880458D
:1010300022D105F1804010F5801008BFBAF1000FF1
:1010400007D0B3450ADC002CA8BF9DED240BE0DAE5
:101050000DE0B0EE480AF0EE680ADAE7002C06DA96
:101060009DED240B51EC100B81F00041CFE7B64809
:10107000784490ED000BCCE7D84553D1002C4EDAE4
:101080002EB1864240D1BAF1000F48D12CE0BAF11E
:10109000000F19D0022000F00BFE53EC192B51EC7D
:1010A000190BFFF746F941EC100B8DED020B9DED8E
:1010B000220B8DED000B10EE900A039961F31E00D8
:1010C00003909DED020BA4E78DED02BB9DED220B7D
:1010D0001BEE901A10EE900A8DED000B61F31E00CE
:1010E00003909DED020B94E78DED02AB9DED220B7D
:1010F0001AEE901A10EE900A8DED000B61F31E00AF
:1011000003909DED020B84E709DA9DED220B51EC73
:10111000180B53EC102BFFF77EF978E71DE09DEDDF
:10112000220B76E7864218DAB4F1804F0DD0A4F195
:101130000050B0F1FF5010D1002D0EDB9DED220BC1
:1011400051EC100B00F054FE61E79DED220B53ECC7
:10115000102B51EC100B00F0E1BC9DED220B51EC7B
:10116000100B00F0ABFD41EC100BBAF1000F8DED50
:10117000120B34D19FED760BDEB1A6F1E040B0F159
:101180007F602CD1002D01DD002C0DDA002D01DD5A
:10119000002C1FDB002D16DA002C14DB012F08BFFA
:1011A0009FED6D0B3FF435AFB0EE4B0AF0EE6B0ADE
:1011B0002FE7022F18BF002D0CD0012F0AD1002DD0
:1011C000FFF627AF06E0002DB8BF002C07DA012F8D
:1011D0003FF41FAFB0EE4A0AF0EE6A0A19E70120A9
:1011E00000EBE570049038430CD05D480025804545
:1011F0007DDD5C495C48884513DDB0420CDB002C8A
:1012000018DB30E0012000F053FD53EC1A2B51ECB9
:101210001A0BFFF700F9FAE6B34502DC002C09DCF3
:1012200021E0864202DA002C1DDA03E05E452DDD66
:10123000002C18DD022000F03BFD53EC192B51EC83
:10124000190BFFF776F841EC100B1BEE900A10EE2D
:10125000901A8DED020B8DED00BB61F31E00039023
:101260009DED020BD5E6022000F022FD00F000FD0E
:1012700010EE901A18EE900A8DED020B8DED008B9A
:1012800061F31E0003909DED020BC2E69DED220B63
:1012900053EC182B51EC100BFFF745F841EC100BF9
:1012A0008DED0C0B9FED320B53EC102B9DED0C0BC9
:1012B00051EC100BFFF73DF89FED2F1B53EC112B5A
:1012C000FFF734F89DED0C1B53EC112BFFF731F8B1
:1012D0009FED2B1B53EC112BFFF728F89DED0C0B0A
:1012E00041EC1A0B53EC102B51EC100B00E08AE090
:1012F000FFF71FF853EC1A2BFFF71BF89FED220B9B
:1013000041EC1B0B53EC102B9DED0C0B40E000004F
:10131000FFFF1F00FFFF0F00000000000000F03F74
:101320000000F03F0000F07F0000404301FCFFFFA1
:101330000000000000000000000000000000F07F3E
:101340000000000000000070340F000000000000EA
:101350000000000000000080000000000000F0FF1E
:101360000000E0410000F043FFFFEF3F00000000FD
:10137000000000000000D03F555555555555D53F4C
:10138000000000000000E03F000000604715F73F4C
:1013900051EC100BFEF7CDFF41EC1A0B9FEDFE0B4D
:1013A00051EC1B0B53EC102BFEF7C3FF41EC1B0B56
:1013B0009FEDFB0B53EC102B9DED0C0B51EC100B28
:1013C000FEF7B7FF53EC1B2BFEF7ADFF41EC1B0BF9
:1013D00051EC1A0B53EC1B2BFEF704FF41EC100BE6
:1013E00053EC1A2B8DED080B08959DED080B51EC75
:1013F000100BFEF798FF53EC1B2BFEF797FF41EC09
:10140000100B00F0AFB90020B6F5801F11DA9FED88
:10141000E60B53EC102B9DED120B51EC100BFEF76D
:1014200088FF41EC100B6FF0340010EE906A8DEDE8
:10143000120BDF4900EB2650A0F2FF38C6F3130071
:1014400040F07F6646F040568842D8BF002409DD50
:10145000D8498142C8BF012404DC002408F10108F6
:10146000A6F58016D448784400EBC40A13969AED8A
:10147000000B53EC102B9DED120B51EC100BFEF7F3
:1014800052FF9AED000B41EC1B0B53EC102B9DED22
:10149000120B51EC100BFEF7A5FE41EC100B51ECBA
:1014A000180B53EC102BFEF7B6FF41EC1C0B51EC64
:1014B0001B0B53EC1C2BFEF73CFF41EC1A0BBF48F7
:1014C0008DED0AAB78440A9590ED000B4FF000507B
:1014D00040EA660000EB84408DED100B00F5002023
:1014E00011909AED000B53EC102B9DED100B51EC6D
:1014F000100BFEF718FF9DED121B53EC112BFEF79E
:1015000015FF41EC100B53EC102B9DED0A0B51EC29
:10151000100BFEF70EFF9DED100B41EC1D0B53EC75
:10152000102B9DED0A0B51EC100BFEF702FF53EC54
:101530001B2BFEF7FBFE53EC1D2BFEF7F4FE53ECCA
:101540001C2BFEF7F6FE41EC1C0B53EC1A2B51EC56
:101550001A0BFEF7EEFE41EC1B0B99480621B0EE8C
:101560004B0AF0EE6B0A784400F006FBB0EE40DA6E
:10157000F0EE60DA53EC1B2B51EC1B0BFEF7D9FE9F
:1015800053EC1D2BFEF7D5FE9DED0A0B41EC1B0B1A
:1015900053EC1A2B51EC100BFEF724FE53EC1C2BD2
:1015A000FEF7C7FE53EC1B2BFEF71CFE9DED0A0B4E
:1015B00041EC1D0B53EC102B51EC100BFEF7B9FE58
:1015C00041EC1B0B9FED80EB53EC1E2BFEF70AFE4C
:1015D00053EC1D2BFEF706FE41EC100B53EC1E2BBB
:1015E0008DED100B10959DED100B51EC100BFEF7CF
:1015F0009AFE53EC1B2BFEF796FE53EC1D2BFEF7C9
:1016000095FE9DED100B41EC1D0B53EC102B9DED49
:101610000A0B51EC100BFEF78CFE41EC1B0B53EC4C
:101620001A2B51EC1D0BFEF784FE9DED100B41ECC7
:101630001A0B53EC102B51EC1C0BFEF77AFE53ECFB
:101640001A2BFEF7CFFD41EC1A0B51EC1B0B53ECA0
:101650001A2BFEF7C7FD41EC100B53EC1B2B8DED45
:101660000A0B0A959DED0A0B51EC100BFEF75BFE81
:1016700053EC1A2BFEF75AFE41EC1A0B9FED540B5C
:1016800053EC102B9DED0A0B51EC100BFEF751FEA5
:1016900041EC1B0B9FED500B51EC1A0B53EC102B34
:1016A000FEF747FE41EC1A0B9FED4D0B53EC102B50
:1016B0009DED0A0B51EC100BFEF73BFE53EC1A2B81
:1016C000FEF790FD41EC100B4748784400EBC40056
:1016D00090ED001B51EC100B53EC112BFEF782FD2B
:1016E00041EC1A0B4046FEF7CBFF41EC100B53ECDC
:1016F0001A2B8DED0C0B51EC1B0BFEF773FD41EC1F
:10170000100B3A48784400EBC40451EC100B94EDF4
:10171000001B53EC112BFEF765FD9DED0C1B53ECEC
:10172000112BFEF75FFD41EC100B8DED080B0895BA
:101730009DED0C0B53EC102B9DED080B51EC100B99
:10174000FEF7F1FD94ED000B53EC102BFEF7EBFDD3
:1017500053EC1B2BFEF7E7FD53EC1A2BFEF7E6FDCF
:1017600041EC100B0498791EB0EE48BAF0EE68BA5E
:10177000084308BF9FED1E8B9DED241B53EC102BDF
:101780008DED001B00959DED240B51EC100BFEF729
:10179000D0FD41EC1A0B2FE0FE822B654715F73F79
:1017A00044DF5DF80BAE543E0000000000004043F3
:1017B0008E9803007AB60B00B60A0000E00A00001B
:1017C000E6090000000000000000000000000840E2
:1017D000000000E009C7EE3FFD033ADC09C7EE3F19
:1017E000F5015B14E02F3EBE7208000028080000DF
:1017F000000000000000F0BF9DED000B53EC102B2B
:101800009DED240B51EC100BFEF78DFD9DED081B9B
:1018100053EC112BFEF78DFD53EC1A2BFEF7E2FC77
:101820009DED080B41EC1A0B53EC102B9DED000BBA
:1018300051EC100BFEF77DFD41EC100B51EC1A0B37
:101840008DED0A0B53EC102BFEF7CCFC41EC100B8A
:10185000B54910EE904A10EE100A8DED020B8C4245
:1018600035DB611A084318D19DED0A0B53EC102BA0
:101870009DED020B51EC100BFEF755FD41EC1C0BDE
:101880009FEDAB0B51EC1A0B53EC102BFEF7AAFC9F
:1018900053EC1C2BFEF706FF33D2022000F008FAAF
:1018A00053EC192B51EC190BFEF743FD41EC100BD7
:1018B00018EE900A10EE901A8DED020B8DED008B54
:1018C00061F31E0003909DED020BFFF7A2BB9A4A45
:1018D00024F00041914214D39849214408437FF4F5
:1018E000C2AC9DED0A0B53EC102B9DED020B51EC9D
:1018F000100BFEF718FD53EC1A2BFEF7D3FE7FF604
:10190000B2AC24F000408E498E4A002601EB2051F3
:101910009042D8BF9DED0A0B2DDD481C4FF480117D
:1019200021FA00F02044C0F30A51874AA1F2FF31A6
:101930007A4492ED000B854A8DED0C0BCA4020EAEB
:101940000202C0F3130040F48010C1F1140120FA28
:1019500001F60D92002CB8BF76429DED0C0B53ECB6
:10196000102B9DED0A0B51EC100BFEF7DCFC41EC4B
:10197000100B8DED0A0B53EC102B51EC1A0BFEF7EC
:1019800031FC41EC100B8DED0C0B9FED710B0C95A8
:1019900053EC102B9DED0C0B51EC100BFEF7C9FC1A
:1019A00041EC190B9FED6C0B53EC102B9DED0C0BC8
:1019B00051EC100BFEF7BDFC9DED0A0B41EC1C0B2E
:1019C00053EC102B9DED0C0B51EC100BFEF7ABFC08
:1019D00053EC1A2BFEF7AAFC9FED611B53EC112B65
:1019E000FEF7A7FC53EC1C2BFEF7FCFB41EC1A0B9B
:1019F00051EC190B53EC1A2BFEF7F4FB41EC100BD6
:101A000053EC192B8DED020BFEF78DFC53EC1A2BCA
:101A1000FEF78CFC9DED020B41EC190B53EC102BE7
:101A200051EC100BFEF785FC41EC100B4E488DED90
:101A30000C0B0521784400F09FF89DED0C1B51EC38
:101A4000100B53EC112BFEF774FC9DED021B53ECB5
:101A5000112BFEF76BFC41EC100B53EC192B8DEDA9
:101A6000080B9DED020B51EC100BFEF762FC53ECE2
:101A7000192BFEF7B7FB9FED3E0B41EC1A0B53EC15
:101A8000102B9DED080B51EC100BFEF74CFC9DED5F
:101A9000080B41EC190B53EC102B9DED020B51EC94
:101AA000100BFEF746FC53EC192BFEF7B4FC53EC7D
:101AB0001A2BFEF738FC9DED021B53EC112BFEF7A1
:101AC00032FC53EC1B2BFEF731FC41EC100B10EEFB
:101AD000900A8DED020B00EB065001150029C4BFE2
:101AE00003909DED020B15DC324651EC100BFEF716
:101AF000B0FDFFF7DFF9042808BF00F0B9F832465F
:101B00009DED020B51EC100BFEF7A3FD41EC100B09
:101B10008DED020B53EC102B51EC180BFEF709FC6A
:101B2000FFF775BA000000000000904000000000C0
:101B3000FE822B654715973C00CC904000346F3FE8
:101B400001FCFFFF0000E03F74060000FFFF0F00F4
:101B500000000000432EE63F396CA80C615C20BEFB
:101B6000EF39FAFE422EE63F480500000000000073
:101B7000000000000000004070B504462DED028B0F
:101B80004D1E00EBC500B0EE408AF0EE608A90ED8D
:101B9000000B35F0060017D053EC182B51EC100B4E
:101BA000FEF7C7FB41EC100B6D1E04EBC50090ED7A
:101BB000001B51EC100B53EC112BFEF713FB41EC07
:101BC000100B35F00600E7D1022D36D0042D1CD0C5
:101BD000062D1CBFBDEC028B70BD53EC182B51ECD5
:101BE000100BFEF7A6FB94ED0A1B53EC112BFEF72E
:101BF000F9FA53EC182BFEF79CFB94ED080B53EC11
:101C0000102BFEF7EFFA41EC100B53EC182B51ECB4
:101C1000100BFEF78EFB94ED060B53EC102BFEF72A
:101C2000E1FA53EC182BFEF784FB94ED041B53EC04
:101C3000112BFEF7D7FA41EC100B53EC182B51EC9B
:101C4000100BFEF776FB94ED020B53EC102BFEF716
:101C5000C9FA53EC182BFEF76CFB94ED000B53EC18
:101C6000102BFEF7BFFABDEC028B41EC100B70BDE0
:101C70009FED050B10B553EC102B51EC100BFEF73C
:101C800058FB41EC100B10BD0000000000000010DC
:101C900002E008C8121F08C1002AFAD17047704735
:101CA000002001E001C1121F002AFBD17047000093
:101CB00001490860704700002800002041EC100B2B
:101CC00082B010EE900A8DED000B20F000400190E4
:101CD0009DED000B02B051EC100B7047FFF758F868
:101CE00034484FF47A710068B0FBF1F0B0F1807FB6
:101CF0002BD220F07F414FF0E020491E41612E4A57
:101D0000F02111700021816107210161FEF742FD80
:101D1000FEF7DAFFFEF702FFFEF79AFDFEF7ACFED4
:101D20000A20FEF727FEFEF7C9FEFEF7A5FE0120FA
:101D3000FEF768FF0220FEF71DFEFEF75FFDFEF7CF
:101D400047FD1E4C4FF4807500E0FEE7FEF7D6FF1E
:101D5000A84202D19FED1A0B13E0B0F5007F0ED020
:101D6000B0F5806F1CD0B0F5006F1CD0B0F5805F6F
:101D70001CD0B0F5005FE9D19FED130B01E09FEDA2
:101D8000140B53EC102B94ED020B51EC100BFEF7DF
:101D900029FA41EC100B84ED020BFEF781FDD5E72B
:101DA0009FED0D0BEDE79FED0E0BEAE79FED0E0BA0
:101DB000E7E700000000002023ED00E0180000200D
:101DC0007B14AE47E17A843F0000000080842E41FE
:101DD000000000000000F03F00000000000059403B
:101DE0000000000000408F4000000000006AF84042
:101DF00000B52DED048B83B041EC180BFEF778FC99
:101E000041EC190B19EE100A19EE901A8DED009B9A
:101E1000002818BF0120084320F00040C0F17F6077
:101E200000F1E040C00F14D018EE101A18EE900A1E
:101E30008DED008B002918BF0121084320F00040E0
:101E4000C0F17F6000F1E040C00F04BF0120FFF748
:101E50002FFF51EC190B03B0BDEC048B00BD00004B
:101E60000000000000000000000000000100000071
:101E70000100000001000000000000000000000060
:101E80000000000001000000010000000000000050
:101E90000000000000000000000000000100000041
:101EA0000000000000000000000000000000000032
:101EB0000000000000000000000000000000000022
:101EC0000000000000000000000000000000000012
:101ED0000000000000000000000000000000000002
:101EE00000000000000000000000000000000000F2
:101EF00000000000000000000000000000000000E2
:101F000001000000020000000400000008000000C2
:101F100010000000200000004000000080000000D1
:101F2000000000000000F03F000000000000F83F4B
:101F300000000000000000000000004003B8E23F85
:101F4000000000000000000006D0CF43EBFD4C3E37
:101F5000033333333333E33FFFAB6FDBB66DDB3F2C
:101F60004D268F515555D53F01411DA96074D13F74
:101F700065DBC9934A86CD3FEF4E454A287ECA3F6E
:101F80003E5555555555C53F93BDBE166CC166BFF0
:101F90002CDE25AF6A56113FF16BD2C541BDBBBEE9
:101FA000D0A4BE726937663E000000000000000049
:101FB000D01F0008000000202C000000901C00082A
:101FC000FC1F00082C00002004040000A01C0008D6
:101FD000007A030A00000000000000000102030470
:101FE00006070809000000000000000000000000D3
:0C1FF0000000000000408F4000000000D6
:040000050800018965
:00000001FF
