:020000040800F2
:10000000600400209D010008CF0E00088F0C00083E
:10001000CD0E0008F90700085F1500080000000079
:100020000000000000000000000000005110000867
:100030009D0A000800000000350F00084911000863
:10004000B7010008B7010008B7010008B7010008B0
:10005000B7010008B7010008B50A0008B701000899
:10006000B7010008B7010008B7010008B701000890
:10007000B7010008B7010008B7010008B701000880
:10008000B7010008B7010008B7010008B701000870
:10009000B7010008B7010008B7010008B701000860
:1000A000B7010008B7010008B7010008B701000850
:1000B000B701000891120008C1120008B70100083A
:1000C000B7010008B7010008B7010008B701000830
:1000D000B7010008B7010008B7010008B701000820
:1000E000B7010008B7010008B7010008B701000810
:1000F000B7010008B7010008B7010008B701000800
:10010000B7010008B7010008B7010008B7010008EF
:10011000B7010008B7010008B7010008B7010008DF
:10012000B7010008B7010008B7010008B7010008CF
:10013000B7010008B7010008B7010008B7010008BF
:10014000B7010008B7010008B7010008B7010008AF
:10015000B7010008B7010008B7010008B70100089F
:10016000B7010008B7010008B7010008B70100088F
:10017000B7010008B7010008B7010008B70100087F
:10018000B7010008B7010008DFF80CD000F0B4FA9E
:10019000004800470D2500086004002006488047FD
:1001A00006480047FEE7FEE7FEE7FEE7FEE7FEE75C
:1001B000FEE7FEE7FEE7FEE7D1110008890100082F
:1001C00040EA01039B0703D009E008C9121F08C0D9
:1001D000042AFAD203E011F8013B00F8013B521E59
:1001E000F9D270472DE9FE4F804681EA0300C00F27
:1001F0000C46009021F0004123F00045B8EB0200CE
:10020000A94105D24046214690461C460B4602466F
:1002100023F00040104304D14046214603B0BDE81E
:10022000F08F270DC7F30A00C3F30A510290401A5A
:100230000190402866DAC3F3130040F4801B009855
:10024000924620B10023D2EB030A63EB0B0B01981B
:100250005946C0F14002504600F081F906460D466D
:1002600050465946019A00F099F910EB0800614197
:10027000002487EA115284EAE7731A433BD0009ABC
:100280003AB3019A012A4FEA075210DC001B61EBD6
:1002900002014FF0004202EA0752CDE90042001C81
:1002A00041F5801132462B4600F097F9B6E7001B66
:1002B00061EB0201001C41F5801300185B4120181E
:1002C000A2F5001747EB030140EAD570B6196D415E
:1002D00011E06D084FEA360645EAC0754FEA07524D
:1002E000001B61EB0201001C41F5801149084FEA37
:1002F00030000019514132462B4603B0BDE8F04FA3
:1003000000F05EB90098012240000023D0EB020209
:1003100063EBE073009821464FEAE074B8EB00000D
:1003200061EB0401E9E783F000435BE781F0004102
:1003300058E72DE9FE4F81EA030404F0004421F060
:10034000004100944FF0000B23F0004350EA0104F9
:1003500002D052EA030404D10020014603B0BDE8F4
:10036000F08FC3F30A54C1F30A552C44A4F2F334BA
:100370000194A0FB0254C1F3130141F48011C3F3B3
:10038000130343F4801301FB024400FB034E840A71
:10039000970A44EA815447EA8357A4FB0768029509
:1003A0008D0A05FB07854FEA932C04FB0C542705A7
:1003B000029D4FEA065847EA1637B5EB08056EEB83
:1003C000070C870E920E47EA811742EA8312A7FBB9
:1003D0000201B6EB0B0164EB00042B0D43EA0C3376
:1003E0005E1844EB1C50DA465146E7FB0201C5F3A8
:1003F00013044FEA0B3343EA14534FEA0432019CCF
:1004000043EA0603A4F10C040294009CCDE900B475
:1004100000F0E3F8A2E72DE9F04D81EA030404F0CF
:10042000004B21F0004514464FF0000A23F0004134
:1004300050EA050220D054EA01021DD0C5F30A5744
:100440000246C5F31303C1F31300C1F30A5640F487
:10045000801543F48013A7EB0608101BD64608F25C
:10046000FD3873EB050002D308F1010801E0921892
:100470005B41B8F1000F03DA00200146BDE8F08DC2
:1004800000204FF48011064684460EE0171B73EBE4
:10049000050705D3121B63EB050306434CEA010C69
:1004A00049084FEA300092185B4150EA0107EDD14C
:1004B00052EA030012D082EA040083EA05010843ED
:1004C00003D100224FF0004308E0101BAB4102D2E1
:1004D0000122002302E06FF0010253101AEB060024
:1004E0004CEB085110EB0A0041EB0B01BDE8F04D5D
:1004F00000F066B870B5C1F30A5201F0004500245F
:10050000C1F3130140F2FF3341F480119A4201DA42
:10051000002070BD40F233439A42A2F2334203DC22
:10052000524200F02BF800E090402C43F1D04042C2
:1005300070BD30B50B46014600202022012409E0A1
:1005400021FA02F59D4205D303FA02F5491B04FA8C
:1005500002F52844151EA2F10102F1DC30BD202A6B
:1005600004DB203A00FA02F1002070479140C2F10A
:10057000200320FA03F3194390407047202A04DB3C
:10058000203A21FA02F00021704721FA02F3D0400C
:10059000C2F120029140084319467047202A06DB29
:1005A000CB17203A41FA02F043EAE07306E041FA41
:1005B00002F3D040C2F1200291400843194670472F
:1005C00010B5002B08DA401C41F1000192185B4184
:1005D0001A4301D120F0010010BD2DE9F04D9246E3
:1005E0009B4611B1B1FA81F202E0B0FA80F22032FA
:1005F0009046FFF7B4FF04460F4640EA0A0041EA7E
:100600000B0153465A46084303D120463946BDE8FC
:10061000F08D114653EA010015D0C8F14002504652
:10062000FFF7ACFF05460E46504659464246FFF7D7
:1006300096FF084301D0012000E00020054346EA70
:10064000E0762C4337430A984FEA4453A0EB080066
:100650004FEAD4240A304FF0000244EA47544FEAEC
:10066000D72502D500200146D1E7010510196941BF
:10067000DDE9084500196941BDE8F04DA0E770B516
:1006800021F0004303430CD0C1F30A550024D5EBFD
:10069000040564EB0403D617AD1AB34102DB002056
:1006A000014670BD201841EB025170BD0EB5C10F5F
:1006B00080EAE0700844CA07002140F233438DE825
:1006C0000E000A460B46FFF788FF03B000BD00008E
:1006D00030B5002904DB4FF00044404264EB0101D7
:1006E000002B04DB4FF00044524264EB03039942B9
:1006F00008BF904230BD0000064C074D06E0E068A0
:1007000040F0010394E8070098471034AC42F6D358
:10071000FFF73EFD50290008702900082DE9F04D33
:1007200000231A461B1A8A4103DB00200146BDE85C
:10073000F08DC1F30A52C1F3130141F480154FF05B
:10074000000BD10702D100186D41521E002704464C
:1007500040F2FF11384601EB620A3E4680460246EF
:1007600000204FF48011FFF709FFC2197141BB1837
:1007700046EB0100B4EB030C75EB000C04D3E41A58
:1007800065EB000517460E46241908F101006D417E
:1007900080463428E3DDF91946EB0600091BA84121
:1007A00003D24FF0FF32134601E0002213461BEB49
:1007B000070046EB0A51BDE8F04DFFF701BF00000E
:1007C0000B48016841F0010101600A48016821F00D
:1007D00003010160816821F003018160816841F0BB
:1007E00002018160C16821F00301C160704700000F
:1007F0003038024000000240FEE700000C4810B50F
:1008000004210160402141604FF43061816000218A
:10081000C1600146002000F041F80121002000F0F5
:1008200025F8BDE8104047F6F071042000F04AB802
:100830004C0000200C4810B504210160802141606B
:100840004FF4206181600021C1600146102000F05A
:1008500025F80121102000F009F8BDE810404FF400
:100860008071002000F038B84C000020044A0123B9
:100870008340106809B1184300E098431060704746
:100880000074004010B501214C07204600F08CFB9D
:100890002046BDE81040002100F086BB30B5084C72
:1008A000236840F6FE7282409343D1E900252A4333
:1008B000D1E902510D432A4382401A43226030BDE0
:1008C00000740040034A08B51044083000900160ED
:1008D00008BD000000740040034A08B510441430FD
:1008E0000090016008BD0000007400401CB50121AB
:1008F0000B4800F041FB0121480700F049FB302084
:10090000009003208DF8040000208DF80700694650
:10091000044800F05BF900F0FBFCFFF7B3FF1CBDDF
:10092000010020000000024030B5A9B00024A02240
:1009300011496846FFF744FC00F0FEFA012000F080
:10094000AFF800F009FB012000F0AAF84FEA0D050E
:1009500000F09CF855F8240000F090F8012000F019
:100960009FF800F0E9FA641C282CF1DB00F0F4FA9F
:1009700000F08CF829B030BDFC2700081148016850
:1009800041F0100101601048016821F47C610160B0
:10099000016841F4A8610160416821F038014160BB
:1009A000816821F47C618160816841F42861816003
:1009B000C16821F47C61C160C16841F4A861C16073
:1009C00070470000303802400010024030B500246B
:1009D0002DED028BB0EE408AF0EE608AA9B09FED5B
:1009E000211B9FED220B00F0E7FD53EC182B51EC7F
:1009F000100BFFF79EFC9FED1F1B53EC112BFFF715
:100A00000AFDFFF777FD01224FEA0D0502FA04F116
:100A1000014000D0012145F82410641C282CF5DB8E
:100A200000F08AFA012000F03BF800F095FA01206E
:100A300000F036F85FF0000400F028F855F82400C4
:100A400000F01CF8012000F02BF800F075FA641C8F
:100A5000282CF1DB00F080FA00F018F829B0BDEC8A
:100A6000028B30BD0000000000004040000000008C
:100A7000000000400000000065CD9D4102494A6928
:100A800042EAC000486170470010024002484169D4
:100A900021F00801416170470010024070470000DA
:100AA000034AD168D3685B1A8342FBD370470000C6
:100AB0001800002010B500F0EBF80021084600F007
:100AC0000BF91349886830B1012808D002280AD0F0
:100AD00003280ED016E0012088600EA006E0022058
:100AE000886010A002E00320886013A000F0BEF927
:100AF00008E00020886015A000F0B8F99FED170B02
:100B0000FFF764FFBDE81040012000F02BB80000A3
:100B1000180000204672657175656E6379204D6519
:100B2000746572004E6F6973652047656E6572610A
:100B300074696F6E0000000041726269746F7279AF
:100B40002046756E6374696F6E00000057617665AC
:100B50002047656E65726174696F6E000000000069
:100B600000408F400149086070470000143C01407C
:100B70003EB500F0FDFB0420ADF80000002001218F
:100B8000ADF80410104CADF80200ADF80600ADF859
:100B900008006946204600F033FC6021204600F042
:100BA00065FC0421204600F077FC8021204600F0FF
:100BB00063FC0121204600F0D0FB012204212046E5
:100BC00000F016FC3EBD000000080040F0B5002318
:100BD000012403270D6804FA03F21540954242D11F
:100BE000D0F800C05E0007FA06F52CEA050CC0F844
:100BF00000C091F804C0D0F800E00CFA06FC4CEA02
:100C00000E0CC0F800C091F804C0BCF1010F02D076
:100C1000BCF1020F1FD1D0F808C02CEA050CC0F8B7
:100C200008C091F805C0D0F808E00CFA06FC4CEAC0
:100C30000E0CC0F808C0D0F804C02CEA020CC0F8B2
:100C400004C0426891F806C00CFA03FC1FFA8CFC41
:100C500042EA0C024260C268AA43C260CA79C5680F
:100C6000B2402A43C2605B1C102BB3D3F0BD4B07CC
:100C7000DB0E9A40C90810B500EB8100016A0F2411
:100C80009C40A1430162016A1143016210BDFEE76D
:100C9000054910B50120088000F0FCF8BDE81040BF
:100CA0000A20FFF7FDBE00001A04024010B50548F7
:100CB000042404800120FFF7F3FE0248801C048016
:100CC00010BD00001804024002494FF400400883A0
:100CD00070470000000002400B4B10B501221A8043
:100CE00011B1012905D009E000F03F0040F080007B
:100CF00002E0C0B240F0C00000F0CCF8BDE8104007
:100D00000120FFF7CDBE00001A04024010B51420E8
:100D1000FFF7C6FE13480421018001210180022152
:100D200001801420FFF7BCFE0F4920200880FFF748
:100D3000BDFF0120FFF7B4FEFFF7B8FF0120FFF76A
:100D4000AFFEFFF7B3FF1420FFF7AAFE282000F044
:100D5000A1F80C2000F09EF8BDE81040062000F03D
:100D600099B800001A040240180C0240354810B52A
:100D7000016841F00801016033490A686FF30F020E
:100D80000A600B6845F2555213430B60091D0B684E
:100D900023F0FF030B60091D0B686FF30F030B605B
:100DA0000B68540023430B60091D0B686FF30F039E
:100DB0000B600B6813430B60016841F00201016096
:100DC00022490A6822F03F020A600A6842F01502CE
:100DD0000A60091D0A6822F007020A60091D0A68F4
:100DE00022F03F020A600A6842F02A020A60091DE6
:100DF0000A6822F03F020A600A6842F015020A609F
:100E0000016841F0010101601148016821F0404191
:100E10000160016841F080410160416821F40041B6
:100E20004160816821F040418160816841F000416A
:100E30008160C16821F04041C160C16841F08041DA
:100E4000C16010BD30380240000C02400004024076
:100E500000000240082804D2024931F8200002496B
:100E6000088070479C280008180C024010B50849FB
:100E700004460120088002E0641C00F00BF8207892
:100E80000028F9D1BDE810400120FFF709BE00009D
:100E9000180402402DE9F0410B4EFF250446358031
:100EA000B71E00F0F0003880FFF700FF0120FFF7C9
:100EB000F7FD35802007000E3880FFF7F7FEBDE80C
:100EC000F0410120FFF7ECBD1A0C0240FEE770472D
:100ED00070B50F21C478027801234FF0E026E4B109
:100EE000124C246804F4E064C4F5E064C4F30724FD
:100EF000C4F10405E1404478AC4085780D402543B9
:100F00000B4C29011155007800F01F018B4040095E
:100F100006EB8000C0F8003170BD02F01F00834076
:100F2000500906EB8000C0F8803170BD0CED00E088
:100F300000E400E07047000010B5064C606940F026
:100F4000100060610120FFF7ABFD606920F0100028
:100F5000606110BD0010024010B5064C606940F0A1
:100F6000200060610120FFF79BFD606920F02000F8
:100F7000606110BD00100240044A0029116801D0D0
:100F8000014300E0814311607047000030380240A7
:100F9000044A0029116801D0014300E08143116037
:100FA0007047000040380240044A0029116801D00F
:100FB000014300E081431160704700002038024087
:100FC00070B5204A1168204C11F00C0104D0661055
:100FD000042903D0082903D004601BE0066019E04F
:100FE0001849091F0B68C3F380550B6803F03F03D2
:100FF00015B1B6FBF3F301E0B4FBF3F30C68096839
:10100000C4F388146343C1F30141491C4900B3FB95
:10101000F1F1016011680F2303EA11110B4B5C5CC5
:101020000168E14041601468072505EA94241C5DCD
:1010300021FA04F48460126805EA52329A5CD140C5
:10104000C16070BD083802400024F4003800002060
:10105000704700000948016841F01001016008482C
:10106000016889B20160816889B281608168054A3E
:1010700011438160C16889B2C16070473038024055
:10108000001002400000AAAA014800697047000051
:10109000001002400CB500202749019000900A681A
:1010A00042F480320A604FF4A0630A6802F400320E
:1010B0000092019A521C0192009A12B9019A9A4226
:1010C000F3D10A68920334D5012000901A484030C9
:1010D000026842F0805202601848026842F480427E
:1010E00002601548083002680260026842F400425B
:1010F0000260026842F4A0520260031F104A1A60A4
:101100000A6842F080720A600A689201FCD50D4AB2
:1011100040F205611160016821F00301016001687E
:1011200041F0020101600168C1F381010229FAD195
:101130000CBD00900CBD0000003802400070004063
:1011400019544007003C02400248C168491CC16074
:10115000704700001800002070B51A4C20681A4A29
:1011600010F00C01194804D05510042903D00829A7
:1011700003D002601BE0056019E01249091F0B68EB
:10118000C3F380560B6803F03F0316B1B5FBF3F2CF
:1011900001E0B2FBF3F20B680968C3F388135A430A
:1011A000C1F30141491C4900B2FBF1F10160216822
:1011B000064AC1F30311121D515C0268CA40026065
:1011C00070BD0000083802400024F4000000002038
:1011D000124810B5016841F47001016010480168BF
:1011E00041F0010101600E4A0021083211600268DD
:1011F0000C4B1A400260031D0B4A1A60026822F46D
:101200008022026006480C300160FFF743FF03496B
:101210004FF000608039086010BD000088ED00E0EC
:1012200000380240FFFFF6FE1030002470B5048C39
:1012300024F001040484058B048C4FF6FF7606EA43
:101240000313134325F0F3052B4324F00A020A434A
:1012500042F001010383018470BDF0B5048C24F0D9
:1012600010040484078B068C4FF6FF7404EA011502
:1012700027F4734704EA0331394304EA02220A439C
:1012800026F0A001294341F0100102830184F0BD42
:10129000094810B50168094C491C0160012120462C
:1012A00000F09AF808B1032100E002212046BDE8D1
:1012B000104000F04FB8000014000020000400406F
:1012C0007FB56846FFF77CFE0F4D0421284600F0ED
:1012D00041F8284600F07EF80C4CA080A08870B140
:1012E000284600F075F864214843A188B0FBF1F06E
:1012F00020800198A1884008B0FBF1F001E00020B7
:10130000208060807FBD00000008004018000020A1
:101310003EB501211020FFF73BFE684600F016F9AC
:10132000012001900020ADF80000094CADF8080044
:10133000ADF802006946204600F0CAF82021204698
:1013400000F0A2F80121204600F007F83EBD0000A1
:1013500000100040C943018270470029018802D073
:1013600041F0010101E021F001010180704700001E
:10137000FEB501210420FFF70BFE01210220FFF73B
:10138000FBFD8020009002208DF8040003208DF8E2
:10139000050000250D4E8DF8065001248DF80740FC
:1013A00069463046FFF712FC022207213046FFF75C
:1013B0005EFC1E208DF808008DF809508DF80A405B
:1013C0008DF80B4002A8FFF783FDFEBD000402402C
:1013D000406B7047806B704702460020138A9289E9
:1013E0000B4202EA010202D0002A00D0012070471D
:1013F000002A828901D00A4300E08A438281704733
:101400002DE9F0410C46002649880746012501B91F
:101410000226A288012A00D10225208823890028DB
:10142000384611D0FFF719FFE188384600F044F83C
:1014300023892A4631463846FFF7F8FEE1883846C8
:10144000BDE8F04100F030B8FFF7F0FEE188384623
:1014500000F02AF823892A4631463846FFF7FDFE78
:10146000E1883846BDE8F04100F026B8028922F054
:1014700070020A4302817047028922F080020281D1
:1014800002890A4302817047828822F070028280BA
:1014900082880A4382807047028922F00702028113
:1014A00002890A4302817047028B22F00C020283F8
:1014B000028B0A4302837047028B22F4406202834C
:1014C000028B4FF6FF7303EA01210A430283704740
:1014D00030B50288164B174C98420DD0A0420BD065
:1014E000B0F1804F08D0144DA84205D0134DA8424A
:1014F00002D0134DA84203D122F070054A882A4336
:10150000104DA84206D0104DA84203D022F44075D9
:101510000A892A4302804A68C2620A880285984280
:1015200001D0A04201D1897A01860121818230BD9A
:101530000000014000040140000400400008004099
:10154000000C004000100040001400404FF0FF313C
:101550004160002101800181418081727047FEE776
:101560000FB4084B10B504A902AA039800F00EFFAF
:10157000044602A9002000F0B3FF204610BC5DF82D
:1015800014FB0000E124000803B401984100009816
:1015900050EAC12018BF04204A0D18BF40F00100D6
:1015A00040F2FF72B2EB515F08BF40F00200012829
:1015B00008BF052002B070472DE9F04D2DED040B5A
:1015C0002DED0E8B94B0DDE92350259CDDF888A02D
:1015D00025F0004624F00048BAF1000F14BF0121A5
:1015E000002101EB4502FE4953184A1093422AD3C9
:1015F000002814BF0123002303EB44030B44F949E3
:101600008B4220D358EA00019FEDF78B6FD0DFF8B3
:10161000E0B35D4503D1BAF1000F05D181E0BAF125
:10162000000F08BF002100D0012101EB450111F599
:10163000001F08D8002814BF0121002101EB44013C
:1016400011F5001F0AD99DED240B53EC102B9DEDD5
:10165000220B51EC100BFEF7C5FD40E00027002DDA
:10166000BCBFE449884521DAE3498845A8BF022781
:101670001CDAC3451ADCE14901EB2851142908DDC5
:10168000C1F1340220FA02F101FA02F282420DD1D4
:1016900008E058B9C1F1140228FA02F101FA02F285
:1016A000424503D101F00101C1F1020756EA0A01E6
:1016B0009FEDD3AB1CD1002C1ADA002D18BF022FDE
:1016C00001D0012F07D0022000F05AFE53EC1A2B54
:1016D00051EC180B05E1022000F052FE7DE041ECD8
:1016E000100B14B0BDEC0E8B04B0BDE8F08D18E00B
:1016F0009FEDC5BB9FEDC69B002877D1BD488045B7
:1017000022D105F1804010F5801008BFBAF1000F1A
:1017100007D0B3450ADC002CA8BF9DED240BE0DA0E
:101720000DE0B0EE480AF0EE680ADAE7002C06DABF
:101730009DED240B51EC100B81F00041CFE7B64832
:10174000784490ED000BCCE7D84553D1002C4EDA0D
:101750002EB1864240D1BAF1000F48D12CE0BAF147
:10176000000F19D0022000F00BFE53EC192B51ECA6
:10177000190BFEF7DEFD41EC100B8DED020B9DED1C
:10178000220B8DED000B10EE900A039961F31E0001
:1017900003909DED020BA4E78DED02BB9DED220BA6
:1017A0001BEE901A10EE900A8DED000B61F31E00F7
:1017B00003909DED020B94E78DED02AB9DED220BA6
:1017C0001AEE901A10EE900A8DED000B61F31E00D8
:1017D00003909DED020B84E709DA9DED220B51EC9D
:1017E000180B53EC102BFEF716FE78E71DE09DED6D
:1017F000220B76E7864218DAB4F1804F0DD0A4F1BF
:101800000050B0F1FF5010D1002D0EDB9DED220BEA
:1018100051EC100B00F0BAFF61E79DED220B53EC89
:10182000102B51EC100B00F0E1BC9DED220B51ECA4
:10183000100B00F05AFE41EC100BBAF1000F8DEDC9
:10184000120B34D19FED760BDEB1A6F1E040B0F182
:101850007F602CD1002D01DD002C0DDA002D01DD83
:10186000002C1FDB002D16DA002C14DB012F08BF23
:101870009FED6D0B3FF435AFB0EE4B0AF0EE6B0A07
:101880002FE7022F18BF002D0CD0012F0AD1002DF9
:10189000FFF627AF06E0002DB8BF002C07DA012FB6
:1018A0003FF41FAFB0EE4A0AF0EE6A0A19E70120D2
:1018B00000EBE570049038430CD05D48002580456E
:1018C0007DDD5C495C48884513DDB0420CDB002CB3
:1018D00018DB30E0012000F053FD53EC1A2B51ECE3
:1018E0001A0BFEF798FDFAE6B34502DC002C09DC82
:1018F00021E0864202DA002C1DDA03E05E452DDD90
:10190000002C18DD022000F03BFD53EC192B51ECAC
:10191000190BFEF70EFD41EC100B1BEE900A10EEBA
:10192000901A8DED020B8DED00BB61F31E0003904C
:101930009DED020BD5E6022000F022FD00F000FD37
:1019400010EE901A18EE900A8DED020B8DED008BC3
:1019500061F31E0003909DED020BC2E69DED220B8C
:1019600053EC182B51EC100BFEF7DDFC41EC100B87
:101970008DED0C0B9FED320B53EC102B9DED0C0BF2
:1019800051EC100BFEF7D5FC9FED2F1B53EC112BE8
:10199000FEF7CCFC9DED0C1B53EC112BFEF7C9FCA4
:1019A0009FED2B1B53EC112BFEF7C0FC9DED0C0B98
:1019B00041EC1A0B53EC102B51EC100B00E08AE0B9
:1019C000FEF7B7FC53EC1A2BFEF7B3FC9FED220B8E
:1019D00041EC1B0B53EC102B9DED0C0B40E0000079
:1019E000FFFF1F00FFFF0F00000000000000F03F9E
:1019F0000000F03F0000F07F0000404301FCFFFFCB
:101A00000000000000000000000000000000F07F67
:101A10000000000000000070041200000000000040
:101A20000000000000000080000000000000F0FF47
:101A30000000E0410000F043FFFFEF3F0000000026
:101A4000000000000000D03F555555555555D53F75
:101A5000000000000000E03F000000604715F73F75
:101A600051EC100BFEF765FC41EC1A0B9FEDFE0BE1
:101A700051EC1B0B53EC102BFEF75BFC41EC1B0BEA
:101A80009FEDFB0B53EC102B9DED0C0B51EC100B51
:101A9000FEF74FFC53EC1B2BFEF745FC41EC1B0BF8
:101AA00051EC1A0B53EC1B2BFEF79CFB41EC100B7B
:101AB00053EC1A2B8DED080B08959DED080B51EC9E
:101AC000100BFEF730FC53EC1B2BFEF72FFC41EC08
:101AD000100B00F0AFB90020B6F5801F11DA9FEDB2
:101AE000E60B53EC102B9DED120B51EC100BFEF797
:101AF00020FC41EC100B6FF0340010EE906A8DED7D
:101B0000120BDF4900EB2650A0F2FF38C6F313009A
:101B100040F07F6646F040568842D8BF002409DD79
:101B2000D8498142C8BF012404DC002408F101081F
:101B3000A6F58016D448784400EBC40A13969AEDB3
:101B4000000B53EC102B9DED120B51EC100BFEF71C
:101B5000EAFB9AED000B41EC1B0B53EC102B9DEDB7
:101B6000120B51EC100BFEF73DFB41EC100B51EC4E
:101B7000180B53EC102BFEF74EFC41EC1C0B51ECF8
:101B80001B0B53EC1C2BFEF7D4FB41EC1A0BBF488C
:101B90008DED0AAB78440A9590ED000B4FF00050A4
:101BA00040EA660000EB84408DED100B00F500204C
:101BB00011909AED000B53EC102B9DED100B51EC96
:101BC000100BFEF7B0FB9DED121B53EC112BFEF733
:101BD000ADFB41EC100B53EC102B9DED0A0B51ECBF
:101BE000100BFEF7A6FB9DED100B41EC1D0B53EC0B
:101BF000102B9DED0A0B51EC100BFEF79AFB53ECEA
:101C00001B2BFEF793FB53EC1D2BFEF78CFB53ECC9
:101C10001C2BFEF78EFB41EC1C0B53EC1A2B51ECEA
:101C20001A0BFEF786FB41EC1B0B99480621B0EE20
:101C30004B0AF0EE6B0A784400F006FBB0EE40DA97
:101C4000F0EE60DA53EC1B2B51EC1B0BFEF771FB33
:101C500053EC1D2BFEF76DFB9DED0A0B41EC1B0BAE
:101C600053EC1A2B51EC100BFEF7BCFA53EC1C2B67
:101C7000FEF75FFB53EC1B2BFEF7B4FA9DED0A0B4E
:101C800041EC1D0B53EC102B51EC100BFEF751FBEC
:101C900041EC1B0B9FED80EB53EC1E2BFEF7A2FAE1
:101CA00053EC1D2BFEF79EFA41EC100B53EC1E2B50
:101CB0008DED100B10959DED100B51EC100BFEF7F8
:101CC00032FB53EC1B2BFEF72EFB53EC1D2BFEF7C8
:101CD0002DFB9DED100B41EC1D0B53EC102B9DEDDE
:101CE0000A0B51EC100BFEF724FB41EC1B0B53ECE1
:101CF0001A2B51EC1D0BFEF71CFB9DED100B41EC5C
:101D00001A0B53EC102B51EC1C0BFEF712FB53EC8F
:101D10001A2BFEF767FA41EC1A0B51EC1B0B53EC34
:101D20001A2BFEF75FFA41EC100B53EC1B2B8DEDD9
:101D30000A0B0A959DED0A0B51EC100BFEF7F3FA16
:101D400053EC1A2BFEF7F2FA41EC1A0B9FED540BF1
:101D500053EC102B9DED0A0B51EC100BFEF7E9FA3A
:101D600041EC1B0B9FED500B51EC1A0B53EC102B5D
:101D7000FEF7DFFA41EC1A0B9FED4D0B53EC102BE5
:101D80009DED0A0B51EC100BFEF7D3FA53EC1A2B16
:101D9000FEF728FA41EC100B4748784400EBC400EA
:101DA00090ED001B51EC100B53EC112BFEF71AFABF
:101DB00041EC1A0B4046FEF779FC41EC100B53EC5A
:101DC0001A2B8DED0C0B51EC1B0BFEF70BFA41ECB3
:101DD000100B3A48784400EBC40451EC100B94ED1E
:101DE000001B53EC112BFEF7FDF99DED0C1B53EC82
:101DF000112BFEF7F7F941EC100B8DED080B089550
:101E00009DED0C0B53EC102B9DED080B51EC100BC2
:101E1000FEF789FA94ED000B53EC102BFEF783FAD2
:101E200053EC1B2BFEF77FFA53EC1A2BFEF77EFACE
:101E300041EC100B0498791EB0EE48BAF0EE68BA87
:101E4000084308BF9FED1E8B9DED241B53EC102B08
:101E50008DED001B00959DED240B51EC100BFEF752
:101E600068FA41EC1A0B2FE0FE822B654715F73F0D
:101E700044DF5DF80BAE543E00000000000040431C
:101E80008E9803007AB60B00860D0000B00D00009E
:101E9000B60C000000000000000000000000084038
:101EA000000000E009C7EE3FFD033ADC09C7EE3F42
:101EB000F5015B14E02F3EBE420B0000F80A000063
:101EC000000000000000F0BF9DED000B53EC102B54
:101ED0009DED240B51EC100BFEF725FA9DED081B30
:101EE00053EC112BFEF725FA53EC1A2BFEF77AF977
:101EF0009DED080B41EC1A0B53EC102B9DED000BE4
:101F000051EC100BFEF715FA41EC100B51EC1A0BCB
:101F10008DED0A0B53EC102BFEF764F941EC100B1E
:101F2000B54910EE904A10EE100A8DED020B8C426E
:101F300035DB611A084318D19DED0A0B53EC102BC9
:101F40009DED020B51EC100BFEF7EDF941EC1C0B73
:101F50009FEDAB0B51EC1A0B53EC102BFEF742F933
:101F600053EC1C2BFEF7B4FB33D2022000F008FA2E
:101F700053EC192B51EC190BFEF7DBF941EC100B6C
:101F800018EE900A10EE901A8DED020B8DED008B7D
:101F900061F31E0003909DED020BFFF7A2BB9A4A6E
:101FA00024F00041914214D39849214408437FF41E
:101FB000C2AC9DED0A0B53EC102B9DED020B51ECC6
:101FC000100BFEF7B0F953EC1A2BFEF781FB7FF6EE
:101FD000B2AC24F000408E498E4A002601EB20511D
:101FE0009042D8BF9DED0A0B2DDD481C4FF48011A7
:101FF00021FA00F02044C0F30A51874AA1F2FF31D0
:102000007A4492ED000B854A8DED0C0BCA4020EA14
:102010000202C0F3130040F48010C1F1140120FA51
:1020200001F60D92002CB8BF76429DED0C0B53ECDF
:10203000102B9DED0A0B51EC100BFEF774F941ECDF
:10204000100B8DED0A0B53EC102B51EC1A0BFEF715
:10205000C9F841EC100B8DED0C0B9FED710B0C953D
:1020600053EC102B9DED0C0B51EC100BFEF761F9AE
:1020700041EC190B9FED6C0B53EC102B9DED0C0BF1
:1020800051EC100BFEF755F99DED0A0B41EC1C0BC2
:1020900053EC102B9DED0C0B51EC100BFEF743F99C
:1020A00053EC1A2BFEF742F99FED611B53EC112BF9
:1020B000FEF73FF953EC1C2BFEF794F841EC1A0B9A
:1020C00051EC190B53EC1A2BFEF78CF841EC100B6A
:1020D00053EC192B8DED020BFEF725F953EC1A2B5F
:1020E000FEF724F99DED020B41EC190B53EC102B7C
:1020F00051EC100BFEF71DF941EC100B4E488DED25
:102100000C0B0521784400F09FF89DED0C1B51EC61
:10211000100B53EC112BFEF70CF99DED021B53EC49
:10212000112BFEF703F941EC100B53EC192B8DED3D
:10213000080B9DED020B51EC100BFEF7FAF853EC77
:10214000192BFEF74FF89FED3E0B41EC1A0B53ECA9
:10215000102B9DED080B51EC100BFEF7E4F89DEDF4
:10216000080B41EC190B53EC102B9DED020B51ECBD
:10217000100BFEF7DEF853EC192BFEF74CF953EC7D
:102180001A2BFEF7D0F89DED021B53EC112BFEF736
:10219000CAF853EC1B2BFEF7C9F841EC100B10EEFC
:1021A000900A8DED020B00EB065001150029C4BF0B
:1021B00003909DED020B15DC324651EC100BFEF73F
:1021C0005EFAFFF7E1F9042808BF00F0B9F83246DB
:1021D0009DED020B51EC100BFEF751FA41EC100B88
:1021E0008DED020B53EC102B51EC180BFEF7A1F800
:1021F000FFF775BA000000000000904000000000EA
:10220000FE822B654715973C00CC904000346F3F11
:1022100001FCFFFF0000E03F44090000FFFF0F004A
:1022200000000000432EE63F396CA80C615C20BE24
:10223000EF39FAFE422EE63F1808000000000000C9
:10224000000000000000004070B504462DED028B38
:102250004D1E00EBC500B0EE408AF0EE608A90EDB6
:10226000000B35F0060017D053EC182B51EC100B77
:10227000FEF75FF841EC100B6D1E04EBC50090ED0E
:10228000001B51EC100B53EC112BFDF7ABFF41EC95
:10229000100B35F00600E7D1022D36D0042D1CD0EE
:1022A000062D1CBFBDEC028B70BD53EC182B51ECFE
:1022B000100BFEF73EF894ED0A1B53EC112BFDF7C3
:1022C00091FF53EC182BFEF734F894ED080B53EC08
:1022D000102BFDF787FF41EC100B53EC182B51EC42
:1022E000100BFEF726F894ED060B53EC102BFDF7C0
:1022F00079FF53EC182BFEF71CF894ED041B53ECFC
:10230000112BFDF76FFF41EC100B53EC182B51EC28
:10231000100BFEF70EF894ED020B53EC102BFDF7AB
:1023200061FF53EC182BFEF704F894ED000B53EC0F
:10233000102BFDF757FFBDEC028B41EC100B70BD6D
:102340009FED050B10B553EC102B51EC100BFDF766
:10235000F0FF41EC100B10BD000000000000001069
:1023600002E008C8121F08C1002AFAD1704770475E
:10237000002001E001C1121F002AFBD170470000BC
:102380000149086070470000480000202DE9FF4F18
:1023900089B09B460446002597E0252833D10027C5
:1023A000641C4E49B84601222378203B02FA03F010
:1023B000084202D00743641CF6E720782E2819D182
:1023C00014F8010F47F004072A280ED06FF02F02EF
:1023D0002078A0F1300109290CD808EB880102EB24
:1023E000410100EB0108641CF2E70A98641C50F8F4
:1023F000048B0A90207800286BD0642808D06928C4
:1024000006D0752820D05A460B9990476D1C5BE08A
:102410000A994FF00A0901C90A91002804DAC0F1AB
:1024200000004FF02D0102E0390504D52B218DF875
:102430002010012103E0F90704D02021F7E78A46A4
:1024400008AE0EE00021FAE70A994FF00A0901C927
:102450000A91F7E74946FEF76CF801F1300106F8FA
:10246000011D0028F6D1ADEB060000F12009780728
:1024700001D44FF00108C84502DDA8EB090000E0D7
:1024800000208046002706E008A85A46C05D0B9948
:1024900090476D1C7F1C5745F6DB04E030205A4600
:1024A0000B9990476D1CB8F10001A8F10108F5DC0B
:1024B00005E016F8010B5A460B9990476D1CB9F1CF
:1024C0000001A9F10109F4DC641C207800287FF4E4
:1024D00064AF0DB02846BDE8F08F00000928010068
:1024E0000A68531C0B601070704741EC100B82B0EF
:1024F00010EE900A8DED000B20F0004001909DED54
:10250000000B02B051EC100B7047000088B0FEF7D2
:1025100023FE73484FF47A710068B0FBF1F0B0F11C
:10252000807F3BD220F07F414FF0E020491E416187
:102530006C4AF0211170002181610721016162B6AE
:10254000FEF73EF9FEF786FDFEF710FCFEF716FAE1
:10255000FEF7CCF9FEF7B8FB0A20FEF7A1FAFEF76A
:10256000D5FBFEF7B1FB0120FEF774FC0220FEF75D
:1025700097FAFEF78DFBFEF7D7F9FEF75BF9FEF74A
:102580003DF900210846FEF7A7FB57A0FEF76EFCB9
:10259000FEF7EEFA564C4FF4807600E0FEE7FEF7C9
:1025A00073FD0546FEF774FB00210846FEF794FB19
:1025B000628850A16846FEF7D3FF6846FEF756FCD6
:1025C00001210020FEF788FB22884DA104A8FEF718
:1025D000C7FF04A8FEF74AFCB5420BD19FED4B0B99
:1025E00084ED060BFEF754FB00210846FEF774FB52
:1025F00048A036E0B5F5007F28D0B5F5806F33D020
:10260000B5F5006F3CD0B5F5805F45D0B5F5005FFE
:102610004ED0B5F5804F57D0B5F5004FBFD194EDF2
:10262000060B53EC102B94ED040B51EC100BFDF743
:10263000D9FD00BF41EC100B84ED040BFEF7C6F989
:1026400001210020FEF748FB35A00AE09FED360B84
:1026500084ED060BFEF71CFB00210846FEF73CFB51
:1026600033A0FEF703FC9AE79FED330B84ED060BD6
:10267000FEF70EFB00210846FEF72EFB30A0F0E728
:102680009FED320B84ED060BFEF702FB002108469E
:10269000FEF722FB2FA0E4E79FED310B84ED060B44
:1026A000FEF7F6FA00210846FEF716FB2EA0D8E743
:1026B0009FED300B84ED060BFEF7EAFA0021084689
:1026C000FEF70AFB2DA0CCE794ED060B53EC102B84
:1026D00094ED040B51EC100BFDF725FEAAE700006A
:1026E0000000002023ED00E054657374696E6700FC
:1026F0001800002046726571203D2025640000000E
:10270000442F43203D202564000000007B14AE4789
:10271000E17A843F496E63203D20302E3031000045
:1027200046726571203D2000000000000000F03F6F
:10273000496E63203D203100000000000000594038
:10274000496E63203D203130300000000000000061
:1027500000408F40496E63203D2031303030000012
:1027600000000000006AF840496E63203D203130CF
:10277000303030000000000080842E41496E63201C
:102780003D203130303030303000000000B52DEDCC
:10279000048B83B041EC180BFDF7C0FF41EC190B23
:1027A00019EE100A19EE901A8DED009B002818BF43
:1027B0000120084320F00040C0F17F6000F1E040BC
:1027C000C00F14D018EE101A18EE900A8DED008B81
:1027D000002918BF0121084320F00040C0F17F60AC
:1027E00000F1E040C00F04BF0120FFF7C9FD51EC2C
:1027F000190B03B0BDEC048B00BD0000000000000D
:1028000000000000000000000100000001000000C6
:1028100001000000000000000000000000000000B7
:1028200001000000010000000000000000000000A6
:102830000000000000000000010000000000000097
:102840000000000000000000000000000000000088
:102850000000000000000000000000000000000078
:102860000000000000000000000000000000000068
:102870000000000000000000000000000000000058
:102880000000000000000000000000000000000048
:102890000000000000000000000000000100000037
:1028A000020000000400000008000000100000000A
:1028B0002000000040000000800000000000000038
:1028C000000000000000F03F000000000000F83FA2
:1028D00000000000000000000000004003B8E23FDC
:1028E000000000000000000006D0CF43EBFD4C3E8E
:1028F000033333333333E33FFFAB6FDBB66DDB3F83
:102900004D268F515555D53F01411DA96074D13FCA
:1029100065DBC9934A86CD3FEF4E454A287ECA3FC4
:102920003E5555555555C53F93BDBE166CC166BF46
:102930002CDE25AF6A56113FF16BD2C541BDBBBE3F
:10294000D0A4BE726937663E00000000000000009F
:1029500070290008000000204C00000060230008DF
:10296000BC2900084C00002014040000702300085B
:10297000007A030A000000000000000001020304C6
:102980000607080900000000000000000000000029
:1029900000000000000000000000000000408F4028
:1029A000000000000000F03F0000000001020304EE
:0C29B000010203040607080900000000F3
:040000050800018965
:00000001FF
