:020000040800F2
:10000000300400209D010008A5010008A701000898
:10001000A9010008AB010008AD01000800000000C4
:10002000000000000000000000000000AF01000818
:10003000B101000800000000B3010008C30B000874
:10004000B7010008B7010008B7010008B7010008B0
:10005000B7010008B7010008B7010008B7010008A0
:10006000B7010008B7010008B7010008B701000890
:10007000B7010008B7010008B7010008B701000880
:10008000B7010008B7010008B7010008B701000870
:10009000B7010008B7010008B7010008B701000860
:1000A000B7010008B7010008B7010008B701000850
:1000B000B7010008B7010008B7010008B701000840
:1000C000B7010008B7010008B7010008B701000830
:1000D000B7010008B7010008B7010008B701000820
:1000E000B7010008B7010008B7010008B701000810
:1000F000B7010008B7010008B7010008B701000800
:10010000B7010008B7010008B7010008B7010008EF
:10011000B7010008B7010008B7010008B7010008DF
:10012000B7010008B7010008B7010008B7010008CF
:10013000B7010008B7010008B7010008B7010008BF
:10014000B7010008B7010008B7010008B7010008AF
:10015000B7010008B7010008B7010008B70100089F
:10016000B7010008B7010008B7010008B70100088F
:10017000B7010008B7010008B7010008B70100087F
:10018000B7010008B7010008DFF80CD001F0C6FC89
:1001900000480047010B0008300400200648804753
:1001A00006480047FEE7FEE7FEE7FEE7FEE7FEE75C
:1001B000FEE7FEE7FEE7FEE75502000889010008BA
:1001C0000020554A116841F4803111604FF4C0633A
:1001D000116801F40031401C09B99842F8D1106847
:1001E000800301D5012000E00020012831D14A48D8
:1001F0004030016841F0805101604848016841F495
:10020000804101604448083001680160016841F4A0
:1002100000410160016841F4A0510160011F404BA1
:100220000B60116841F08071116011688901FCD583
:100230003C4A40F205611160016821F00301016050
:10024000016841F0020101600168C1F381010229E6
:10025000FAD1704710B53448016841F4700101606B
:100260002D48016841F0010101602B4A002108324C
:10027000116002682D4B1A400260031D2C4A1A605F
:10028000026822F48022026023480C300160FFF7EC
:1002900097FF25494FF000608039086010BD70B5A8
:1002A0001D4E0836306800F00C00224B2249002811
:1002B0000FD05D1004280ED008280ED00B603068D7
:1002C0001D4AC0F30310121D105C0A68C2400A6088
:1002D00070BD0B60F3E70D60F1E70F4A121D106867
:1002E000C0F38054106800F03F0034B1B5FBF0F06B
:1002F0001368C3F38813584305E0B3FBF0F01368A9
:10030000C3F3881358431268C2F30142521C5200CF
:10031000B0FBF2F00860D2E7003802400070004005
:1003200019544007003C024088ED00E0FFFFF6FE54
:10033000103000240024F4000000002010B586B026
:100340000121480501F097F80121022001F06FF822
:10035000C020049002208DF814008DF815000120B3
:100360008DF816008DF81700944C04A9204600F073
:10037000CFFC04220621204600F03DFD0422072187
:10038000204600F038FD8E4800900020ADF80400B3
:100390004BF6FF71ADF80610ADF80800ADF80A0095
:1003A0004FF48040ADF80C00864C6946204600F0C2
:1003B00071FD0121204600F0D3FD06B010BD10B53F
:1003C00086B00121880501F056F80121022001F0D4
:1003D0002EF84FF44060049002208DF814008DF840
:1003E000150001208DF816008DF81700734C04A934
:1003F000204600F08DFC04220A21204600F0FBFC80
:1004000004220B21204600F0F6FC6D4800900020ED
:10041000ADF804004BF6FF71ADF80610ADF808001A
:10042000ADF80A004FF48040ADF80C00664C694608
:10043000204600F02FFD0121204600F091FDBCE791
:1004400070B588B00121C80501F015F801210846F2
:1004500000F0EDFF0121042000F0E9FF4FF480706F
:10046000069002248DF81C408DF81D4001258DF862
:100470001E508DF81F50554E06A9304600F048FC1E
:10048000210204918DF814408DF815408DF8165016
:100490008DF817504E4C04A9204600F039FC042278
:1004A0000821304600F0A7FC04220921204600F074
:1004B000A2FC434800900020ADF804004BF6FF7109
:1004C000ADF80610ADF80800ADF80A00A803ADF8C5
:1004D0000C00404C6946204600F0DCFC012120461F
:1004E00000F03EFD08B070BD2DE9F04105460F4615
:1004F00014464FF400363146284600F03AFE0028F4
:10050000F9D10121284600F037FD334E2846314607
:1005100000F01CFE0028F9D022463946284600F09B
:1005200043FD5CB1012C07D12B4C641C21462846AD
:1005300000F00CFE0028F9D0BDE8F081274C2846D9
:10054000214600F003FE0028F9D0F5E770B5054616
:10055000284600F0A9FD214CA41C2146284600F0A5
:10056000F5FD0028F9D070BD70B50546012128467B
:1005700000F023FD184C3F342146284600F0E6FDEC
:100580000028F9D02846BDE8704000F08FBD70B556
:1005900005460021284600F010FD0F4C3F3421464F
:1005A000284600F0D3FD0028F9D02846BDE8704069
:1005B00000F07CBD012100F0EBBC00000004024013
:1005C000A086010000540040005800400000024096
:1005D00000080240005C00400100030082000700A8
:1005E00030B587B00121084600F021FF012102202B
:1005F00000F01DFF0121082000F019FF07200390E3
:1006000001258DF8105000248DF812408DF811400E
:100610008DF8134003A97F4800F07AFBFF2001907A
:100620008DF808508DF80A408DF809408DF80B5070
:1006300001A9794800F06CFBE80305908DF818508B
:100640008DF81A408DF819408DF81B4005A97348A4
:1006500000F05EFB07B030BD04216E4800F0BDBB6A
:1006600004216C4800F0B7BB10B5FFF7F9FF01207B
:1006700000F0BBF9BDE81040EEE70221654800F04C
:10068000ACBB10B50446FFF7F8FFE1B2BDE810407F
:10069000614800F0A0BBFF215F4800F09EBB10B591
:1006A0000446FFF7F8FF2046FFF7EBFFFFF7DCFFFC
:1006B000BDE81040012000F098B90121554800F034
:1006C0008CBB10B5FFF7F9FFFFF7D7FFBDE810406F
:1006D0000C20E4E74FF40041504800F07CBB10B51B
:1006E000FFF77EFFFFF7D7FFFFF7B6FFFFF7E5FF46
:1006F000FFF7C3FFFFF7EEFF142000F076F930207C
:10070000FFF7CDFF0A2000F070F93020FFF7C7FF98
:10071000012000F06AF93020FFF7C1FF3820FFF711
:10072000BEFF0820FFF7BBFF0120FFF7B8FF062040
:10073000FFF7B5FF052000F058F9BDE81040C0E70D
:100740000121344800F047BB0221324800F043BB8E
:1007500010B5FFF7B2FFFFF790FFBDE8104008208B
:100760009DE74FF400412D4800F037BB10B5FFF76F
:10077000A4FF0320FFF793FFBDE810400A2000F01C
:1007800034B910B5FFF799FFFFF777FF0120FFF7A6
:1007900086FFBDE810400A2000F027B910B50446D6
:1007A000FFF7CEFF2046FFF77AFFBDE8104001209B
:1007B00000F01BB970B505460024FFF7C1FF03E048
:1007C0006D1CFFF76CFF641C287808B10F2CF7DD57
:1007D000BDE87040012000F008B970B504460D4630
:1007E000FFF74BFFFFF769FF15B1012D07D00BE0B5
:1007F00004F03F0040F08000FFF751FF04E0E0B25A
:1008000040F0C000FFF74BFFBDE87040012000F052
:10081000ECB8000000040240000C0240000002405E
:1008200070B56024624D002292212846FFF75CFEDD
:1008300001212846FFF78AFE21462846FFF786FE5B
:100840002846FFF7B7FEBDE87040052000F0CDB8A0
:1008500070B52DED028B82B000200190544E002225
:1008600092213046FFF740FE00213046FFF76EFE32
:100870003046FFF79FFE012292213046FFF734FEFB
:100880003046FFF771FE04463046FFF780FE05460E
:100890003046FFF78FFE45EA042000F021FF41ECCF
:1008A000180B9FED441B9FED450B01F0F9F953EC3C
:1008B000182B51EC100B00F0A1FE41EC100B02B014
:1008C000BDEC028B70BD70B50024394E01229A2117
:1008D0003046FFF709FE3046FFF746FE44EA0025A2
:1008E0003046FFF754FE40EA05043046FFF762FE4B
:1008F000204670BD70B500242D4D002240212846B1
:10090000FFF7F2FD05212846FFF720FE2146284685
:10091000FFF71CFE2846FFF74DFEBDE8704005209E
:1009200000F063B870B50546214C002240212046F6
:10093000FFF7DAFD00212046FFF708FE2946204692
:10094000FFF704FE2046BDE87040FFF733BE70B5E8
:10095000174C002240212046FFF7C6FD0921204602
:10096000FFF7F4FD2046FFF725FE01224021204637
:10097000FFF7BAFD2046FFF70AFE05462046FFF7BF
:1009800019FE284670BD70B50546094C002240216D
:100990002046FFF7A9FD0A212046FFF7D7FD29468B
:1009A0002046FFF7D3FD2046BDE87040FFF702BEAA
:1009B000005C004000000000000020C000000000BB
:1009C0000000004070B54FF6FF7101EA00247F4D32
:1009D00004F47F41284600F0FEF9E1432846BDE8D3
:1009E000704001F47F4100F0F8B979490A680B685A
:1009F0009B1A8342FBD3704770B50020FFF792FF2C
:100A000000210846FFF7E9FE72A0FFF7D3FEFF249E
:100A10004FF6FF754FF47E46200AFFF7D3FF1920EB
:100A2000FFF7E3FF05EA4404B442F5D100240121B5
:100A30002046FFF7D2FEF620FFF7B0FE0C20FFF7AE
:100A4000D4FF641CA4B20F2CF1D9FF24200AFFF7B5
:100A50009AFF1920FFF7C9FF05EA4404B442F5D113
:100A6000002401212046FFF7B8FEF720FFF796FE8D
:100A7000641CA4B20F2CF4D94FF47F642546C5F34F
:100A80000710FFF780FF1920FFF7AFFF6D08072D54
:100A9000F5D110250121681EFFF79FFE2020FFF7EA
:100AA0007DFE0C20FFF7A1FF6D1EADB2002DF1D130
:100AB000C4F30710FFF786FF1920FFF796FF6408BD
:100AC000072CF5D170BD1CB50121082000F0AFFC4A
:100AD0004FF47F40009001208DF8040000218DF834
:100AE00006108DF8070002208DF80500374C694686
:100AF000204600F00DF90021204600F06CF91CBDE5
:100B00002DED028B8EB0FFF7CAFB37484FF47A7198
:100B10000068B0FBF1F0B0F1807F01D301200DE05F
:100B200020F07F404FF0E021401E48612F4AF02026
:100B300010700020886107200861002000B1FEE7E6
:100B4000FFF7C1FFFFF7CBFDFFF77AFCFFF768FE69
:100B5000FFF7D0FEFFF750FF4FF4FA70FFF745FFA5
:100B6000FFF7B1FE0446FFF773FEB0EE408AF0EEE9
:100B7000608AC4F307100546FFF705FF2846FFF714
:100B800021FF53EC182B1AA107A801F05BF80021F4
:100B90000846FFF722FE07A8FFF70CFEB220FFF77A
:100BA000FDFD17A0FFF706FE224617A1684601F0DB
:100BB00049F801210020FFF710FE6846FFF7FAFD13
:100BC000CEE703480168491C01607047000C0240F1
:100BD00014000020442643205049436B697420448C
:100BE000656D6F20000000000000002023ED00E094
:100BF000202054656D703A20252E316600000000DB
:100C000043202020200000002020204144433A209F
:100C100025303475202020202020202000000000D6
:100C200010B57D49884209D10121084600F03BFCFE
:100C30000021BDE81040012000F035BC7749884212
:100C400009D10121022000F02EFC0021BDE8104056
:100C5000022000F028BC7249884209D101210420F9
:100C600000F021FC0021BDE81040042000F01BBC76
:100C70006C49884209D10121082000F014FC0021B0
:100C8000BDE81040082000F00EBC6749884209D139
:100C90000121102000F007FC0021BDE810401020C9
:100CA00000F001BC6149884209D10121202000F0F7
:100CB000FAFB0021BDE81040202000F0F4BB5C49A5
:100CC000884209D10121402000F0EDFB0021BDE860
:100CD0001040402000F0E7BB5649884209D101216D
:100CE000802000F0E0FB0021BDE81040802000F0F3
:100CF000DABB514988420AD184150121204600F00F
:100D0000D2FB2046BDE81040002100F0CCBB10BD56
:100D10002DE9F041002201274FF0030C07FA02F5FC
:100D20000B682B40AB422CD1066853000CFA03F43D
:100D3000A64306600E79D0F800809E4046EA080679
:100D400006600E79012E01D0022E12D18668A643CC
:100D500086604E79D0F808809E4046EA0806866094
:100D60004668AE43466045688E799640B6B23543D4
:100D70004560C568A543C560CC799C40C3681C43E9
:100D8000C460521C102AC9D3BDE8F0814FF6FF7130
:100D900001600021017141718171C171704741F49D
:100DA0008032C261C161C261C169C06970470246D7
:100DB000002012690A4200D001207047006980B209
:100DC00070470246002052690A4200D00120704755
:100DD000406980B270470183704741837047002AA1
:100DE00001D0018370474183704741617047426978
:100DF0004A404261704710B54B07DB0E9A40C90864
:100E000000EB8100016A0F249C40A1430162016A4A
:100E10001143016210BD00000000024000040240C6
:100E200000080240000C0240001002400014024082
:100E300000180240001C02400020024010B5E049AA
:100E400088420AD101214C05204600F050FB204683
:100E5000BDE81040002100F04ABBDA4988420AD1BF
:100E600001218C05204600F042FB2046BDE81040E1
:100E7000002100F03CBBD44988420AD10121CC05B5
:100E8000204600F034FB2046BDE81040002100F071
:100E90002EBB10BD7FB504460D46A08820F03F064E
:100EA000684600F059FA0298C849B0FBF1F189B2DE
:100EB0000E43A680228822F001022280C44B2A68B9
:100EC0009A4209D85200B0FBF2F080B2042800D256
:100ED0000420491C218422E0EB88A3F53F46FF3E15
:100EE00005D102EB4202B0FBF2F080B208E002EB67
:100EF000C20303EB0212B0FBF2F080B240F4804078
:100F0000020501D140F0010040F400404FF4967218
:100F100051434FF47A72B1FBF2F1491C2184A08352
:100F2000208840F00100208020884FF6F5310840ED
:100F3000A9886A89114301432180A8892989084326
:100F400020817FBD41F288310160002181804BF614
:100F5000FF72C280018141814FF4804181817047DD
:100F6000002904D0018841F0010101807047018807
:100F700021F0010101807047002904D0018841F46B
:100F8000807101807047018821F480710180704771
:100F9000002904D0018841F4007101807047018864
:100FA00021F4007101807047002A02D041F0010154
:100FB00001E001F0FE0101827047002904D00188A0
:100FC00041F4806101807047018821F480610180D3
:100FD0007047828922F0FE0201F0FE0111438181F7
:100FE0007047002904D0818941F001018181704757
:100FF000818921F0010181817047002904D0018895
:1010000041F0400101807047018821F040010180DA
:101010007047002904D0018841F4004101807047E5
:101020000188C1F30E0101807047002904D00188B6
:1010300021F0800101807047018841F0800101802A
:101040007047B1F5804F04D0818B21F480418183BA
:101050007047818B41F4804181837047B1F5006F07
:1010600004D0018821F4006101807047018841F4B7
:10107000006101807047B1F5005F04D0018821F460
:10108000005101807047018841F400510180704790
:10109000002904D0018841F01001018070470188C7
:1010A00021F010010180704701827047008AC0B2B0
:1010B0007047002904D0018841F4805101807047B5
:1010C000018821F4805101807047B1F5006F04D090
:1010D000018821F4006101807047018841F40061BA
:1010E00001807047002904D0018841F0200101806F
:1010F0007047018821F0200101807047008B000AB1
:101100007047002904D0818841F4006181807047D4
:10111000818821F4006181807047002904D0818892
:1011200041F4805181807047818821F48051818011
:101130007047084400887047002A03D082880A4319
:101140008280704782888A438280704703460020ED
:101150009A8A1B8B1B041A4322F07F42914300D1D1
:1011600001207047818A008B0004014321F07F40F9
:10117000704700220B0F21F07F41002B01D014306B
:1011800001E0090C18300068084200D00122104626
:101190007047C9438182704710B50246002093888A
:1011A00001F0E06403EA144321F07F41928A0A428D
:1011B00002D0002B00D0012010BDC94381827047AE
:1011C0000054004000580040005C004040420F00C6
:1011D000A0860100F948016841F001010160F74A69
:1011E0000021083211600268F54B1A400260031DAD
:1011F000F44A1A60026822F480220260EF480C3040
:1012000001607047ED490022891C0A700870704720
:1012100002460020510901290CD002290DD0E749CE
:101220007431096802F01F02012393400B4200D081
:1012300001207047E1490968F4E7E0497031096825
:10124000F0E730B500244FF4C0653120FFF7E0FF30
:10125000641CAC4201D00028F7D03120FFF7D8FF42
:1012600008B1012030BD002030BDD44A116821F002
:10127000F80141EAC00010607047D3490860704728
:10128000CE49002270310A700A70012804D0042867
:1012900001D1052008707047012008707047CB49C4
:1012A0000860704710B5029C41EA82114FF0FF328E
:1012B00002EB530241EA0241014341EA0460BF49A3
:1012C000091D086010BDC04908667047800140EAEA
:1012D0000170BA49843108607047BB49886670471D
:1012E000B949C8647047B54B08331A6822F0EC62FC
:1012F0000843104318607047B04B08331A6822F057
:1013000078420843104318607047AC4A08321168AD
:1013100021F00301014311607047A84808300068BC
:1013200000F00C007047A54A0832116821F0F00166
:10133000014311607047A14A0832116821F4E0515D
:101340000143116070479D4A0832116821F46041E1
:1013500041EAC0001060704770B5984B08331968B7
:1013600001F00C019A4C00291ED0661004291DD0F2
:1013700008291DD00460196801F0F0010909954A97
:10138000545C0168E14041601C6804F4E054A40A24
:10139000145D21FA04F484601B6803F460435B0B62
:1013A000D25CD140C16070BD0460E4E70660E2E752
:1013B000824A121D1168C1F38055116801F03F0186
:1013C00035B1B6FBF1F11468C4F38814614305E04C
:1013D000B4FBF1F11468C4F3881461431268C2F3DA
:1013E0000142521C5200B1FBF2F10160C3E7C0F3AD
:1013F0000121032908D1714B0833196821F4F8122F
:1014000075490140114319606C4A70321168C0F38C
:101410000B000143116070476C4944390860704704
:101420006A494039086070476C4908607047634AF0
:101430003032002903D011680143116070471168F0
:101440008143116070475D4A3432002903D011682E
:101450000143116070471168814311607047574A1A
:101460003832002903D011680143116070471168B8
:10147000814311607047514A4032002903D01168FE
:1014800001431160704711688143116070474B4AF6
:101490004432002903D0116801431160704711687C
:1014A000814311607047454A1032002903D011680A
:1014B00001431160704711688143116070473F4AD2
:1014C0001432002903D0116801431160704711687C
:1014D000814311607047394A1832002903D01168DE
:1014E0000143116070471168814311607047334AAE
:1014F0002032002903D01168014311607047116840
:101500008143116070472D4A2432002903D01168AD
:101510000143116070471168814311607047274A89
:101520005032002903D011680143116070471168DF
:10153000814311607047214A5432002903D0116859
:1015400001431160704711688143116070471B4A65
:101550005832002903D011680143116070471168A7
:10156000814311607047154A6032002903D0116829
:1015700001431160704711688143116070470F4A41
:101580006432002903D0116801431160704711686B
:10159000814311607047094A0D32002903D0117848
:1015A00001431170704711788143117070470348EF
:1015B0007430016841F0807101607047003802406A
:1015C000FFFFF6FE1030002400004742800E474225
:1015D0000024F40018000020FFFCFF0F5C014742CC
:1015E00001460020044A12680A42E6D00120E4E7DE
:1015F0000149891C0870E0E70C3802402DE9FE4FD4
:1016000081EA030404F0004421F0004100944FF00B
:10161000000B23F0004350EA010402D052EA030415
:1016200004D10020014603B0BDE8F08FC3F30A5493
:10163000C1F30A552C44A4F2F3340194A0FB0254E4
:10164000C1F3130141F48011C3F3130343F4801376
:1016500001FB024400FB034E840A970A44EA8154CA
:1016600047EA8357A4FB076802958D0A05FB0785A7
:101670004FEA932C04FB0C542705029D4FEA0658B1
:1016800047EA1637B5EB08056EEB070C870E920E8E
:1016900047EA811742EA8312A7FB0201B6EB0B016E
:1016A00064EB00042B0D43EA0C335E1844EB1C5032
:1016B000DA465146E7FB0201C5F313044FEA0B3348
:1016C00043EA14534FEA0432019C43EA0603A4F1AF
:1016D0000C040294009CCDE900B400F062F8A2E78B
:1016E0000EB540F2334102910021CDE900110A46C6
:1016F0000B4600F056F803B000BD30B50B4601466E
:1017000000202022012409E021FA02F59D4205D3A0
:1017100003FA02F5491B04FA02F52844151EA2F14A
:101720000102F1DC30BD2DE9F05F05460020924654
:101730009B4688460646814640241BE02846414693
:101740004746224600F00BFA53465A46C01A9141CA
:1017500010D311461846224600F0F2F92D1A67EB15
:1017600001084F4622460120002100F0E9F917EB5D
:1017700000094E41201EA4F10104DFDC4846314639
:101780002A464346BDE8F09F10B5002B08DA401CFE
:1017900041F1000192185B411A4301D120F0010090
:1017A00010BD2DE9F04D92469B4611B1B1FA81F280
:1017B00002E0B0FA80F22032904600F0C1F904460F
:1017C0000F4640EA0A0041EA0B0153465A460843D5
:1017D00003D120463946BDE8F08D114653EA010099
:1017E00015D0C8F14002504600F0B9F905460E4642
:1017F00050465946424600F0A3F9084301D0012063
:1018000000E00020054346EAE0762C4337430A987F
:101810004FEA4453A0EB08004FEAD4240A304FF0BB
:10182000000244EA47544FEAD72502D5002001467A
:10183000D1E7010510196941DDE908450019694141
:10184000BDE8F04DA0E72DE9FE4F804681EA030098
:10185000C00F0C46009021F0004123F00045B8EB8A
:101860000200A94105D24046214690461C460B463F
:10187000024623F00040104304D14046214603B005
:10188000BDE8F08F270DC7F30A00C3F30A51029099
:10189000401A0190402866DAC3F3130040F4801B1D
:1018A0000098924620B10023D2EB030A63EB0B0BA6
:1018B00001985946C0F14002504600F041F90646F1
:1018C0000D4650465946019A00F059F910EB0800B0
:1018D0006141002487EA115284EAE7731A433BD03E
:1018E000009A3AB3019A012A4FEA075210DC001B12
:1018F00061EB02014FF0004202EA0752CDE90042DB
:10190000001C41F5801132462B46FFF74AFFB6E72F
:10191000001B61EB0201001C41F5801300185B41C4
:101920002018A2F5001747EB030140EAD570B6195D
:101930006D4111E06D084FEA360645EAC0754FEA81
:101940000752001B61EB0201001C41F580114908A0
:101950004FEA30000019514132462B4603B0BDE832
:10196000F04FFFF711BF0098012240000023D0EB99
:10197000020263EBE073009821464FEAE074B8EB93
:10198000000061EB0401E9E783F000435BE781F0CD
:10199000004158E72DE9F04D81EA030404F0004BC3
:1019A00021F0004514464FF0000A23F0004150EAB0
:1019B000050220D054EA01021DD0C5F30A570246A1
:1019C000C5F31303C1F31300C1F30A5640F48015A5
:1019D00043F48013A7EB0608101BD64608F2FD3827
:1019E00073EB050002D308F1010801E092185B4196
:1019F000B8F1000F03DA00200146BDE8F08D0020A9
:101A00004FF48011064684460EE0171B73EB050762
:101A100005D3121B63EB050306434CEA010C49088E
:101A20004FEA300092185B4150EA0107EDD152EACB
:101A3000030012D082EA040083EA0501084303D1BF
:101A400000224FF0004308E0101BAB4102D20122FC
:101A5000002302E06FF0010253101AEB06004CEB7A
:101A6000085110EB0A0041EB0B01BDE8F04DFFF708
:101A70008BBE70B521F0004303430CD0C1F30A556F
:101A80000024D5EB040564EB0403D617AD1AB3416B
:101A900002DB0020014670BD201841EB025170BDF1
:101AA0000EB5C10F80EAE0700844CA07002140F279
:101AB00033438DE80E000A460B46FFF772FE03B073
:101AC00000BDC1F30A52C1F3130140F2FF3341F4E8
:101AD00080119A4202DA00200146704740F23343F7
:101AE0009A42A2F2334202DC524200F038B800F0CF
:101AF00027B8000030B5002904DB4FF00044404215
:101B000064EB0101002B04DB4FF00044524264EB14
:101B10000303994208BF904230BD0000064C074DB8
:101B200006E0E06840F0010394E8070098471034AD
:101B3000AC42F6D3FEF72CFB4034000860340008BA
:101B4000202A04DB203A00FA02F10020704791407D
:101B5000C2F1200320FA03F3194390407047202A72
:101B600004DB203A21FA02F00021704721FA02F347
:101B7000D040C2F120029140084319467047202A04
:101B800006DBCB17203A41FA02F043EAE07306E0A5
:101B900041FA02F3D040C2F12002914008431946B5
:101BA00070472DE9F04D00231A461B1A8A4103DBCA
:101BB00000200146BDE8F08DC1F30A52C1F31301C4
:101BC00041F480154FF0000BD10702D100186D4190
:101BD000521E0027044640F2FF11384601EB620A0C
:101BE0003E468046024600204FF48011FFF7B7FFC3
:101BF000C2197141BB1846EB0100B4EB030C75EB45
:101C0000000C04D3E41A65EB000517460E462419B0
:101C100008F101006D4180463428E3DDF91946EBF7
:101C20000600091BA84103D24FF0FF32134601E022
:101C3000002213461BEB070046EB0A51BDE8F04DAE
:101C4000FFF7A2BD0FB4084B10B504A902AA039870
:101C500000F0BEFF044602A9002001F05CFB204614
:101C600010BC5DF814FB00001733000803B40198A2
:101C70004100009850EAC12018BF04204A0D18BF47
:101C800040F0010040F2FF72B2EB515F08BF40F03C
:101C90000200012808BF052002B0704700000000C4
:101CA0002DE9F04D2DED040B2DED0E8B94B0DDE9FB
:101CB0002350259CDDF888A025F0004624F000483C
:101CC000BAF1000F14BF0121002101EB4502FE49CA
:101CD00053184A109A422AD8002814BF012300231F
:101CE00003EB44030B44F949994220D858EA000118
:101CF0009FEDF78B6FD0DFF8E0B35D4503D1BAF10C
:101D0000000F68D004E0BAF1000F08BF002100D036
:101D1000012101EB450111F5001F08D8002814BF6F
:101D20000121002101EB440111F5001F0AD99DEDAD
:101D3000240B53EC102B9DED220B51EC100BFFF7F5
:101D400082FD40E00027002DBCBFE449884521DA30
:101D5000E3498845A8BF02271CDAD8451ADBE149C8
:101D600001EB2851142908DDC1F1340220FA02F1F7
:101D700001FA02F282420DD108E058B9C1F1140211
:101D800028FA02F101FA02F2424503D101F0010101
:101D9000C1F1020756EA0A019FEDD3AB1CD1002C1A
:101DA0001ADA002D18BF022F01D0012F07D0022010
:101DB00000F05AFE53EC1A2B51EC180B05E10220EF
:101DC00000F052FE7DE041EC100B14B0BDEC0E8B28
:101DD00004B0BDE8F08D18E09FEDC5BB9FEDC69B3C
:101DE000002877D1BD48804522D105F1804010F50B
:101DF000801008BFBAF1000F07D05E450ADB002C47
:101E0000A8BF9DED240BE0DA0DE0B0EE480AF0EE3D
:101E1000680ADAE7002C06DA9DED240B51EC100B72
:101E200081F00041CFE7B648784490ED000BCCE755
:101E3000D84553D1002C4EDA2EB1864240D1BAF1AA
:101E4000000F2DD047E0BAF1000F19D0022000F0AA
:101E50000BFE53EC192B51EC190BFFF7CFFB41ECA8
:101E6000100B8DED020B9DED220B8DED000B10EE96
:101E7000900A039961F31E0003909DED020BA4E705
:101E80008DED02BB9DED220B1BEE901A10EE900A19
:101E90008DED000B61F31E0003909DED020B94E7A6
:101EA0008DED02AB9DED220B1AEE901A10EE900A0A
:101EB0008DED000B61F31E0003909DED020B84E796
:101EC00009DA9DED220B51EC180B53EC102BFFF7A8
:101ED00061FD78E71DE09DED220B76E7B04218DD4D
:101EE000B4F1804F0DD0A4F10050B0F1FF5010D1EB
:101EF000002D0EDB9DED220B51EC100B01F020FAB2
:101F000061E79DED220B53EC102B51EC100B00F010
:101F1000E1BC9DED220B51EC100B01F001FA41ECFC
:101F2000100BBAF1000F8DED120B34D19FED760B33
:101F3000DEB1A6F1E040B0F17F602CD1002D01DDD3
:101F4000002C0DDA002D01DD002C1FDB002D16DA30
:101F5000002C14DB012F08BF9FED6D0B3FF435AF54
:101F6000B0EE4B0AF0EE6B0A2FE7022F18BF002DE0
:101F70000CD0012F0AD1002DFFF627AF06E0002D6F
:101F8000B8BF002C07DA012F3FF41FAFB0EE4A0AAA
:101F9000F0EE6A0A19E7012000EBE570049038437F
:101FA0000CD05D48002580457DDD5C495C48884556
:101FB00013DD86420CDC002C18DB30E0012000F041
:101FC00053FD53EC1A2B51EC1A0BFFF7E3FCFAE626
:101FD000B34502DC002C09DC21E0B04202DD002C1C
:101FE00004DB1CE05E452DDD002C18DD022000F036
:101FF0003BFD53EC192B51EC190BFFF7FFFA41ECA9
:10200000100B1BEE900A10EE901A8DED020B8DED69
:1020100000BB61F31E0003909DED020BD5E602208C
:1020200000F022FD00F000FD10EE901A18EE900A6C
:102030008DED020B8DED008B61F31E0003909DED85
:10204000020BC2E69DED220B53EC182B51EC100B4A
:10205000FFF79AFC41EC100B8DED0C0B9FED320B52
:1020600053EC102B9DED0C0B51EC100BFFF7C6FA47
:102070009FED2F1B53EC112BFFF789FC9DED0C1BE3
:1020800053EC112BFFF7BAFA9FED2B1B53EC112BDE
:10209000FFF77DFC9DED0C0B41EC1A0B53EC102B64
:1020A00051EC100B00E08AE0FFF7A8FA53EC1A2B72
:1020B000FFF7A4FA9FED220B41EC1B0B53EC102B06
:1020C0009DED0C0B40E00000FFFF1F00FFFF0F0025
:1020D000000000000000F03F0000F03F0000F07F33
:1020E0000000404301FCFFFF000000000000000072
:1020F000000000000000F07F000000000000007001
:102100000C1600000000000000000000000000802D
:10211000000000000000F0FF0000E0410000F0437C
:10212000FFFFEF3F00000000000000000000D03F74
:10213000555555555555D53F000000000000E03F6E
:10214000000000604715F73F51EC100BFFF756FAFF
:1021500041EC1A0B9FEDFE0B51EC1B0B53EC102BBB
:10216000FFF74CFA41EC1B0B9FEDFB0B53EC102BD4
:102170009DED0C0B51EC100BFFF740FA53EC1B2BB1
:10218000FFF702FC41EC1B0B51EC1A0B53EC1B2B21
:10219000FFF759FB41EC100B53EC1A2B8DED080B9C
:1021A00008959DED080B51EC100BFFF7EDFB53EC80
:1021B0001B2BFFF7ECFB41EC100B00F0AFB900203C
:1021C000B6F5801F11DA9FEDE60B53EC102B9DED59
:1021D000120B51EC100BFFF711FA41EC100B6FF0E2
:1021E000340010EE906A8DED120BDF4900EB2650A3
:1021F000A0F2FF38C6F3130040F07F6646F0405669
:102200008842D8BF002409DDD8498142C8BF0124D3
:1022100004DC002408F10108A6F58016D4487844AF
:1022200000EBC40A13969AED000B53EC102B9DEDB6
:10223000120B51EC100BFFF7A7FB9AED000B41ECD2
:102240001B0B53EC102B9DED120B51EC100BFFF7F9
:10225000FAFA41EC100B51EC180B53EC102BFFF772
:1022600099FB41EC1C0B51EC1B0B53EC1C2BFFF7A7
:10227000C5F941EC1A0BBF488DED0AAB78440A95BD
:1022800090ED000B4FF0005040EA660000EB8440F8
:102290008DED100B00F5002011909AED000B53EC22
:1022A000102B9DED100B51EC100BFFF76DFB9DED0E
:1022B000121B53EC112BFFF76AFB41EC100B53EC94
:1022C000102B9DED0A0B51EC100BFFF797F99DEDCC
:1022D000100B41EC1D0B53EC102B9DED0A0B51EC38
:1022E000100BFFF78BF953EC1B2BFFF750FB53EC54
:1022F0001D2BFFF749FB53EC1C2BFFF77FF941EC3B
:102300001C0B53EC1A2B51EC1A0BFFF777F941EC2D
:102310001B0B99480621B0EE4B0AF0EE6B0A78448D
:1023200000F006FBB0EE40DAF0EE60DA53EC1B2B67
:1023300051EC1B0BFFF762F953EC1D2BFFF75EF915
:102340009DED0A0B41EC1B0B53EC1A2B51EC100BBF
:10235000FFF779FA53EC1C2BFFF750F953EC1B2BCA
:10236000FFF771FA9DED0A0B41EC1D0B53EC102B9E
:1023700051EC100BFFF742F941EC1B0B9FED80EB8A
:1023800053EC1E2BFFF75FFA53EC1D2BFFF75BFAA4
:1023900041EC100B53EC1E2B8DED100B10959DEDA9
:1023A000100B51EC100BFFF7EFFA53EC1B2BFFF760
:1023B000EBFA53EC1D2BFFF7EAFA9DED100B41EC05
:1023C0001D0B53EC102B9DED0A0B51EC100BFFF77E
:1023D00015F941EC1B0B53EC1A2B51EC1D0BFFF7BD
:1023E0000DF99DED100B41EC1A0B53EC102B51EC39
:1023F0001C0BFFF703F953EC1A2BFFF724FA41ECFF
:102400001A0B51EC1B0B53EC1A2BFFF71CFA41EC87
:10241000100B53EC1B2B8DED0A0B0A959DED0A0B4F
:1024200051EC100BFFF7B0FA53EC1A2BFFF7AFFA91
:1024300041EC1A0B9FED540B53EC102B9DED0A0B46
:1024400051EC100BFFF7DAF841EC1B0B9FED500B32
:1024500051EC1A0B53EC102BFFF7D0F841EC1A0B90
:102460009FED4D0B53EC102B9DED0A0B51EC100B17
:10247000FFF7C4F853EC1A2BFFF7E5F941EC100B0A
:102480004748784400EBC40090ED001B51EC100B62
:1024900053EC112BFFF7D7F941EC1A0B4046FFF72D
:1024A000FFFA41EC100B53EC1A2B8DED0C0B51EC99
:1024B0001B0BFFF7C8F941EC100B3A48784400EBCE
:1024C000C40451EC100B94ED001B53EC112BFFF7DF
:1024D000BAF99DED0C1B53EC112BFFF7B4F941EC4D
:1024E000100B8DED080B08959DED0C0B53EC102B8C
:1024F0009DED080B51EC100BFFF746FA94ED000B25
:1025000053EC102BFFF740FA53EC1B2BFFF73CFA70
:1025100053EC1A2BFFF73BFA41EC100B0498791E91
:10252000B0EE48BAF0EE68BA084308BF9FED1E8BC4
:102530009DED241B53EC102B8DED001B00959DEDA4
:10254000240B51EC100BFFF759F841EC1A0B2FE05C
:10255000FE822B654715F73F44DF5DF80BAE543E16
:1025600000000000000040438E9803007AB60B0084
:102570008E110000B8110000BE1000000000000025
:102580000000000000000840000000E009C7EE3F26
:10259000FD033ADC09C7EE3FF5015B14E02F3EBEB8
:1025A0004A0F0000000F0000000000000000F0BF14
:1025B0009DED000B53EC102B9DED240B51EC100BFB
:1025C000FFF7E2F99DED081B53EC112BFFF716F80E
:1025D00053EC1A2BFFF737F99DED080B41EC1A0B62
:1025E00053EC102B9DED000B51EC100BFFF706F890
:1025F00041EC100B51EC1A0B8DED0A0B53EC102B28
:10260000FFF721F941EC100BB54910EE904A10EE9E
:10261000100A8DED020B8C4235DB611A084318D18C
:102620009DED0A0B53EC102B9DED020B51EC100BA2
:10263000FFF7AAF941EC1C0B9FEDAB0B51EC1A0B09
:1026400053EC102BFFF7FFF853EC1C2BFFF752FA5B
:1026500033D2022000F008FA53EC192B51EC190B7D
:10266000FEF7CCFF41EC100B18EE900A10EE901A1A
:102670008DED020B8DED008B61F31E0003909DED3F
:10268000020BFFF7A2BB9A4A24F00041914214D3F7
:102690009849214408437FF4C2AC9DED0A0B53ECEA
:1026A000102B9DED020B51EC100BFFF76DF953EC65
:1026B0001A2BFFF71FFA7FF6B2AC24F000408E49C8
:1026C0008E4A002601EB20519042D8BF9DED0A0BA7
:1026D0002DDD481C4FF4801121FA00F02044C0F396
:1026E0000A51874AA1F2FF317A4492ED000B854AE4
:1026F0008DED0C0BCA4020EA0202C0F3130040F437
:102700008010C1F1140120FA01F60D92002CB8BF1F
:1027100076429DED0C0B53EC102B9DED0A0B51EC0A
:10272000100BFFF731F941EC100B8DED0A0B53EC58
:10273000102B51EC1A0BFFF786F841EC100B8DEDC6
:102740000C0B9FED710B0C9553EC102B9DED0C0BAE
:1027500051EC100BFEF752FF41EC190B9FED6C0B87
:1027600053EC102B9DED0C0B51EC100BFEF746FFBC
:102770009DED0A0B41EC1C0B53EC102B9DED0C0B4B
:1027800051EC100BFFF700F953EC1A2BFFF7FFF891
:102790009FED611B53EC112BFEF730FF53EC1C2B0C
:1027A000FFF751F841EC1A0B51EC190B53EC1A2BB3
:1027B000FFF749F841EC100B53EC192B8DED020B90
:1027C000FFF7E2F853EC1A2BFFF7E1F89DED020B4F
:1027D00041EC190B53EC102B51EC100BFEF70EFFD4
:1027E00041EC100B4E488DED0C0B0521784400F0A8
:1027F0009FF89DED0C1B51EC100B53EC112BFEF7C9
:10280000FDFE9DED021B53EC112BFFF7C0F841ECD0
:10281000100B53EC192B8DED080B9DED020B51ECB9
:10282000100BFEF7EBFE53EC192BFFF70CF89FEDA6
:102830003E0B41EC1A0B53EC102B9DED080B51ECA9
:10284000100BFFF7A1F89DED080B41EC190B53ECB1
:10285000102B9DED020B51EC100BFEF7CFFE53EC4D
:10286000192BFFF797F853EC1A2BFFF78DF89DED16
:10287000021B53EC112BFFF787F853EC1B2BFFF7D0
:1028800086F841EC100B10EE900A8DED020B00EB78
:10289000065001150029C4BF03909DED020B15DC05
:1028A000324651EC100BFFF7E4F8FFF7DFF904288C
:1028B00008BF00F0B9F832469DED020B51EC100B49
:1028C000FFF7D7F841EC100B8DED020B53EC102BFA
:1028D00051EC180BFEF792FEFFF775BA00000000EE
:1028E0000000904000000000FE822B654715973CD9
:1028F00000CC904000346F3F01FCFFFF0000E03F40
:102900004C0D0000FFFF0F0000000000432EE63FCB
:10291000396CA80C615C20BEEF39FAFE422EE63F0E
:10292000200C00000000000000000000000000403B
:1029300070B504462DED028B4D1E00EBC500B0EEC8
:10294000408AF0EE608A90ED000B35F0060017D05B
:1029500053EC182B51EC100BFEF750FE41EC100B12
:102960006D1E04EBC50090ED001B51EC100B53ECF9
:10297000112BFEF768FF41EC100B35F00600E7D194
:10298000022D36D0042D1CD0062D1CBFBDEC028BB1
:1029900070BD53EC182B51EC100BFEF72FFE94ED8D
:1029A0000A1B53EC112BFEF74EFF53EC182BFEF7CE
:1029B00025FE94ED080B53EC102BFEF744FF41EC81
:1029C000100B53EC182B51EC100BFEF717FE94ED87
:1029D000060B53EC102BFEF736FF53EC182BFEF7CB
:1029E0000DFE94ED041B53EC112BFEF72CFF41EC74
:1029F000100B53EC182B51EC100BFEF7FFFD94ED70
:102A0000020B53EC102BFEF71EFF53EC182BFEF7B6
:102A1000F5FD94ED000B53EC102BFEF714FFBDEC0D
:102A2000028B41EC100B70BD9FED050B10B553EC04
:102A3000102B51EC100BFEF7E1FD41EC100B10BD1B
:102A4000000000000000001002E008C8121F08C1CA
:102A5000002AFAD170477047002001E001C1121F1F
:102A6000002AFBD170470000014908607047000050
:102A7000280000202DE9FF5FDDE90220010DDDF8CF
:102A800038B0024310D10F9801244CA2012808D07D
:102A9000002100980F9BC0E90021C0E90243BDE876
:102AA000FF9F6FEA0B01F4E7A1F2FF3144F61050EB
:102AB00041430D140F9801280ED0A5EB0B00401CCC
:102AC0004FF000043E4EDFF8FC90B0F1000AA04643
:102AD00005DACAF1000717E0CBF10000F0E707467E
:102AE00012E0F80707D02246334640464946FEF733
:102AF00085FD804689462246334610461946FEF734
:102B00007DFD04460E467F10002FEAD1DDE902016B
:102B1000BAF1000F42464B4602DAFEF76FFD01E0C4
:102B2000FEF738FF04460E460022274BFEF7E2FF71
:102B300003D84FF0FF30014607E00022234B204628
:102B40003146FEF780FEFEF7BCFF102409E0002CA2
:102B50000ADB0A220023FEF7E6FD019B30321A55FC
:102B6000641E50EA0102F2D1641C019AC4F11103FF
:102B700014440F9A012A09D00122084301D15B4570
:102B80000FDD4FF0000205F101050DE0084303D110
:102B9000A3EB0B056D1E09E000204FF0110B0F9009
:102BA00088E701DA00226D1E002A83D000980F9971
:102BB000C0E90231C0E9004571E7000030000000C3
:102BC000000024400000F03F0000F0430000E03F20
:102BD0002DE9FF4F95B09B4689460646002512E237
:102BE000252878D10024761CF94A2746012105942E
:102BF0003378203B01FA03F0104202D00443761CE4
:102C0000F6E730782A2811D06FF02F033078A0F142
:102C10003002092A16D8059A44F0020402EB820217
:102C200003EB42021044761C0590EFE759F8042BA1
:102C30000592002A03DA504244F40054059044F00F
:102C40000204761C30782E2816D116F8010F44F0B5
:102C500004042A280DD06FF02F023078A0F1300341
:102C6000092B09D807EB870302EB4303C718761C2F
:102C7000F3E759F8047B761C30786C280FD006DC1B
:102C80004C2817D068280DD06A2814D104E0742885
:102C900010D07A280FD10DE044F400140AE044F477
:102CA000801401E044F440147278824202D1761C10
:102CB00004F58014761C307866280BD013DC582875
:102CC00077D009DC002875D04528F6D04628F4D006
:102CD00047281AD19FE118E0632835D0642879D0BD
:102CE000652812D197E1702873D008DC6728F1D0ED
:102CF00069286FD06E280DD06F2806D1B5E07328F3
:102D00002CD0752875D0782874D05A4617999047DA
:102D10006D1C76E1C4F30250022809D003280DD0BF
:102D2000D9F8001004280DD00D6009F1040968E1FC
:102D3000D9F80010EA17C1E90052F6E7D9F80010F7
:102D40000D80F2E70D70F0E719F8041B8DF8001004
:102D500000208DF80100EA46012003E059F804AB99
:102D60004FF0FF3061074FF0000102D40DE008F191
:102D700001018846B9420FDA8045F8DB1AF80810DD
:102D80000029F4D108E008F1010188468142FADB0C
:102D90001AF808100029F6D105985B46A0EB080741
:102DA00021463846179A00F09EFA284400EB0805A1
:102DB00007E04DE02BE10DE01AF8010B5A46179998
:102DC0009047B8F10108F7D25B4621463846179A7A
:102DD00014E142E00A220092C4F302524FF0000ACA
:102DE000022A08D059F804CB032A4FEAEC710AD022
:102DF0000DE029E02AE009F1070121F00702F2E8DD
:102E000002C1914609E00FFA8CFC4FEAEC71042AEA
:102E100003D14FFA8CFC4FEAEC71002907DA0A461D
:102E20000021DCF1000C61EB02012D2202E0220501
:102E300004D52B228DF80420012203E0E20701D003
:102E40002022F7E7904653E00A2102E010220DE02D
:102E500010214FF0000A00910BE010224FF0000A01
:102E600044F004040827009203E008224FF0000A0F
:102E70000092C4F30252022A05D059F804CB002173
:102E8000032A08D009E009F1070121F00702F2E85E
:102E900002C1914605E01FFA8CFC042A01D10CF016
:102EA000FF0C4FF00008220722D5702827D0009B86
:102EB00083F0100353EA0A0309D15CEA010206D049
:102EC00030228DF804208DF8050002229046009BE8
:102ED00083F0080353EA0A030AD15CEA010201D134
:102EE000620705D530228DF804204FF001087F1EBF
:102EF000582809D037A003900EA8029013E0402272
:102F00008DF804200122E1E737A0F4E7534660463C
:102F1000009AFEF708FC84460398825C0298A0F1B0
:102F20000100029002705CEA0100EFD1029806A94C
:102F3000A1EB000000F1200A600702D524F48034E0
:102F400000E00127574502DDA7EB0A0000E0002062
:102F500000EB0A01009005984144A0EB01000590A8
:102F6000E00306D45B462146179A059800F0BBF9AA
:102F70000544002706E001A85A46C05D179990470E
:102F80006D1C7F1C4745F6DBE0030CD55B462146F4
:102F9000179A059800F0A7F9054404E030205A4636
:102FA000179990476D1C0099481E00900029F5DC88
:102FB00008E0029802995A460078491C0291179934
:102FC00090476D1CBAF10001AAF1010AF1DC6BE136
:102FD00009280100303132333435363738396162EF
:102FE00063646566000000003031323334353637B3
:102FF00038394142434445460000000000F060F982
:10300000054406F10106307800287FF4E9AD19B0D7
:103010002846BDE8F08F620700D4062709F10702B1
:1030200022F0070CFCE80223E14603F000485FEAC7
:10303000080C02D00FF27C2C0DE05FEA045C02D594
:103040000FF2742C07E05FEAC47C02D00FF26C2C04
:1030500001E0AFF2700C4FF0FF3823F00043CDF8E1
:1030600050C065280CD006DC452809D046281DD064
:1030700047283ED13EE0662818D0672839D139E08C
:103080000021112F01DB112000E0781CCDE90001A7
:1030900006A90EA8FFF7EEFCDDE90F010E9A0391D9
:1030A0000021009207F1010A04914EE04FF0004028
:1030B0000097CDE9011006A90EA8FFF7DBFCDDE9BA
:1030C0000F0203920E9B11990022DDF80CA00093D1
:1030D000049219B907F1010100EB010AB7EB0A00EC
:1030E00004D4C0F1FF3007F1010A0490AAEB0700F5
:1030F000019046E0012F00DA01270021112F01DDA8
:10310000112000E03846CDE9000106A90EA8FFF71E
:10311000B1FCDDE90F010E9A0391002104910092A8
:10312000BA4621070CD40399514500DA8A46BAF110
:10313000010F05DD009AAAF10101515C302908D088
:10314000B84202DA10F1040F06DA0121CDE90110CC
:1031500017E0AAF10101E9E7002805DC0499014420
:103160000491AAEB000102E0411C514500DD8A46B2
:103170000499A0EB010000F1010001904FF0004024
:103180000290200704D40198504501DBCDF804805B
:1031900000208DF84F0002980DF14F07B0F1004F5D
:1031A00025D02B200E9002984FF0020800280CDA50
:1031B000404202902D200E9007E00A210298FEF76F
:1031C0009CFA3031029007F8011DB8F10001A8F116
:1031D0000108F2DC02980028EFD1791E0E980870E1
:1031E000307800F0200040F0450007F8020D12A8EA
:1031F000A0EB070000F107081498007800B1012047
:1032000000EB0A01019801EBE07105984144A0EB45
:103210000100A0F101000590E00306D45B462146C1
:10322000179A059800F05FF805441498007820B1CB
:103230005A461799904705F10105E00323D55B46EF
:103240002146179A059800F04EF805441BE00498B3
:10325000002807DB0399814204DD04990098405C53
:10326000179901E0179930205A46904704986D1C31
:10327000401C04900198401E019004D12E205A4613
:10328000179990476D1CBAF10001AAF1010ADEDC22
:1032900005E017F8010B5A46179990476D1CB8F1D5
:1032A0000001A8F10108F4DC5B462146179A059855
:1032B000A4E600002D0000002B000000200000000C
:1032C0002DE9F041044600251E461746880405D422
:1032D00006E039462020B04705F10105641EF8D507
:1032E0002846BDE8F0812DE9F041044600251E4640
:1032F0009046C80301D5302700E02027880405D573
:1033000006E041463846B04705F10105641EF8D590
:103310002846BDE8F0810A68531C0B6010707047A6
:1033200041EC100B82B010EE900A8DED000B20F0F6
:10333000004001909DED000B02B051EC100B704766
:1033400000B52DED048B83B041EC180BFEF729FC82
:1033500041EC190B19EE100A19EE901A8DED009B35
:10336000002818BF0120084320F00040C0F17F6012
:1033700000F1E040C00F14D018EE101A18EE900AB9
:103380008DED008B002918BF0121084320F000407B
:10339000C0F17F6000F1E040C00F04BF0120FFF7E3
:1033A00063FB51EC190B03B0BDEC048B00BD0000B6
:1033B000000000000000F03F000000000000F83FA7
:1033C00000000000000000000000004003B8E23FE1
:1033D000000000000000000006D0CF43EBFD4C3E93
:1033E000033333333333E33FFFAB6FDBB66DDB3F88
:1033F0004D268F515555D53F01411DA96074D13FD0
:1034000065DBC9934A86CD3FEF4E454A287ECA3FC9
:103410003E5555555555C53F93BDBE166CC166BF4B
:103420002CDE25AF6A56113FF16BD2C541BDBBBE44
:10343000D0A4BE726937663E0000000000000000A4
:1034400060340008000000202C000000482A00081A
:103450008C3400082C00002004040000582A0008C6
:10346000007A030A000000000000000001020304CB
:103470000607080900000000000000000102030424
:0C34800001020304060708090000000018
:040000050800018965
:00000001FF
